:020000040800F2
:10000000000002208D07000889070008CD3900088C
:100010008907000889070008890700080000000018
:100020000000000000000000000000008907000838
:1000300089070008000000008907000851390008FE
:100040008907000889070008890700088907000850
:100050008907000889070008890700088907000840
:10006000890700088907000889070008513500083A
:100070005D350008912200086935000875350008D3
:1000800021DB0008412A00088907000889070008C9
:100090008907000889070008890700088907000800
:1000A00089070008890700088907000889070008F0
:1000B000DDCE0008E9CE0008F5CE0008712A000860
:1000C000890700087D2A00088907000885C70008FD
:1000D00091C7000855D9000885D90008B9D900088A
:1000E0008907000889070008000000008907000848
:1000F00089070008890700088907000889070008A0
:10010000890700088907000801CF00089DC700087B
:10011000EDD9000821DA00088907000889070008DE
:100120008907000889070008C1C70008F5C700084B
:1001300055DB0008890700088907000889070008BF
:1001400000000000000000000000000000000000AF
:1001500089070008890700088907000855DA0008A0
:10016000892A0008890700086139000885390008D4
:1001700089070008A93900088907000889070008CD
:10018000890700088907000889DA0008B9DA000839
:10019000A9C70008B5C70008890700088907000833
:1001A00089070008890700088907000889070008EF
:1001B000C13100088907000889070008890700087D
:1001C00089070008890700088907000889070008CF
:1001D00089070008890700088907000889070008BF
:1001E00089070008890700088907000889070008AF
:1001F000890700088907000889070008890700089F
:10020000890700088907000889070008890700088E
:10021000890700088907000889070008890700087E
:100220008907000889070008890700080000000006
:1002300089070008890700080000000089070008F6
:10024000890700088907000889070008890700084E
:10025000890700088907000889070008890700083E
:10026000890700088907000889070008890700082E
:100270008907000889070008EDDA0008000000007F
:1002800089070008890700088907000800000000A6
:080290000000000089070008CE
:1002A00001F0FF01102A2BDB10F0070F08D010F827
:1002B000013B013A8B422DD010F0070F42B3F6D12B
:1002C000F0B441EA012141EA014122F007047FF044
:1002D00000070023F0E80256083C85EA010586EA9B
:1002E000010685FA47F5A3FA87F586FA47F6A5FAD7
:1002F00087F68EB9EED1F0BC01F0FF0102F00702E3
:1003000032B110F8013B013A83EA010313B1F8D18D
:100310000020704701387047002D06BF354603386E
:10032000073815F0010F07D1013015F4807F02BFA7
:10033000013015F4C03F0130F0BC0138704700BFF8
:10034000034613F8012B002AFBD1181A0138704715
:1003500081F0004102E000BF83F0004330B54FEA76
:1003600041044FEA430594EA050F08BF90EA020FE3
:100370001FBF54EA000C55EA020C7FEA645C7FEA76
:10038000655C00F0E2804FEA5454D4EB5555B8BF99
:100390006D420CDD2C4480EA020281EA030382EA0A
:1003A000000083EA010180EA020281EA0303362D9C
:1003B00088BF30BD11F0004F4FEA01314FF4801C6F
:1003C0004CEA113102D0404261EB410113F0004F81
:1003D0004FEA03334CEA133302D0524263EB430338
:1003E00094EA050F00F0A780A4F10104D5F1200ED6
:1003F0000DDB02FA0EFC22FA05F2801841F1000131
:1004000003FA0EF2801843FA05F359410EE0A5F104
:1004100020050EF1200E012A03FA0EFC28BF4CF035
:10042000020C43FA05F3C01851EBE37101F00045EB
:1004300007D54FF0000EDCF1000C7EEB00006EEBF8
:100440000101B1F5801F1BD3B1F5001F0CD3490882
:100450005FEA30004FEA3C0C04F101044FEA4452D9
:1004600012F5800F80F09A80BCF1004F08BF5FEA60
:10047000500C50F1000041EB045141EA050130BD40
:100480005FEA4C0C404141EB0101013C28BFB1F552
:10049000801FE9D291F0000F04BF01460020B1FA9D
:1004A00081F308BF2033A3F10B03B3F120020CDA70
:1004B0000C3208DD02F1140CC2F10C0201FA0CF04E
:1004C00021FA02F10CE002F11402D8BFC2F1200CB3
:1004D00001FA02F120FA0CFCDCBF41EA0C01904069
:1004E000E41AA2BF01EB0451294330BD6FEA0404B2
:1004F0001F3C1CDA0C340EDC04F11404C4F120029D
:1005000020FA04F001FA02F340EA030021FA04F3AE
:1005100045EA030130BDC4F10C04C4F1200220FA05
:1005200002F001FA04F340EA0300294630BD21FA43
:1005300004F0294630BD94F0000F83F4801306BF09
:1005400081F480110134013D4EE77FEA645C18BFFD
:100550007FEA655C29D094EA050F08BF90EA020F94
:1005600005D054EA000C04BF1946104630BD91EA8C
:10057000030F1EBF0021002030BD5FEA545C05D18F
:100580004000494128BF41F0004130BD14F58004CE
:100590003CBF01F5801130BD01F0004545F0FE4142
:1005A00041F470014FF0000030BD7FEA645C1ABF77
:1005B000194610467FEA655C1CBF0B46024650EAAE
:1005C000013406BF52EA033591EA030F41F40021DA
:1005D00030BD00BF90F0000F04BF0021704730B560
:1005E0004FF4806404F132044FF000054FF0000135
:1005F00050E700BF90F0000F04BF0021704730B5F6
:100600004FF4806404F1320410F0004548BF4042CA
:100610004FF000013EE700BF42004FEAE2014FEA1F
:1006200031014FEA02701FBF12F07F4393F07F4FFA
:1006300081F06051704732F07F4208BF704793F0FD
:100640007F4F04BF41F40021704730B54FF4607410
:1006500001F0004521F000411CE700BF50EA010213
:1006600008BF704730B54FF000050AE050EA0102BC
:1006700008BF704730B511F0004502D5404261EB2C
:1006800041014FF4806404F132045FEA915C3FF46D
:10069000D8AE4FF003025FEADC0C18BF03325FEA0A
:1006A000DC0C18BF033202EBDC02C2F1200300FABB
:1006B00003FC20FA02F001FA03FE40EA0E0021FAE0
:1006C00002F11444BDE600BF53B94AB9002908BF7E
:1006D00000281CBF4FF0FF314FF0FF3000F00CB886
:1006E000ADF1080C6DE904CE12F0F6FCDDF804E083
:1006F000DDE9022304B07047704700BF0348044B94
:10070000834202D0034B03B11847704744050024CD
:1007100044050024000000000548064B1B1AD90FB1
:1007200001EBA301491002D0034B03B118477047F6
:1007300044050024440500240000000010B5064CC8
:10074000237843B9FFF7DAFF044B13B10448AFF342
:1007500000800123237010BD480500240000000024
:10076000103B010808B5054B1BB105490548AFF31F
:100770000080BDE80840FFF7CFBF00BF00000000C9
:100780004C050024103B0108FEE700BF0B480C4A53
:10079000904203D0121A0B4910F0B0FD0A480B4AE0
:1007A000904203D0121A002110F060FD03F02EFBDE
:1007B00010F06EFD00F08AF8FEE700BF0000002494
:1007C00044050024403B010848050024EC40002477
:1007D000704700BF704700BF704700BF2DE9F04170
:1007E000DFF8E48000240D46164647462DED028BC7
:1007F000E2B2013400212F4801F0F0FC042CA7ECF8
:10080000010AF5D198ED000A9FED2B8A2B4C20EEC2
:10081000080A2B4F204684ED020A0FF005FDB6EEC4
:10082000007AD8ED027A384684ED080A67EE877AB6
:10083000C7ED027A0FF014FA98ED037A3846DFED2F
:10084000217AE7EE087AC7ED017A0FF009FAF0EEA7
:10085000086AD8ED017AB0EE007A67EEA67AF4EE77
:10086000C77AF1EE10FA22DCB7EE007AF4EEC77A1E
:10087000F1EE10FACCBF0123002323709EB10024B7
:100880000E480FF0F9FA0E480FF0CCFAD5E9000344
:1008900000EB840003EB8403013480ED000AA642E0
:1008A00083ED000AECD1BDEC028BBDE8F0810223A0
:1008B000E3E700BF8009002400007A4438090024DF
:1008C000000900240000C842F00800242DE9F0438C
:1008D00000218DB03F48002500F04EF93D4800F062
:1008E000DFF8F7EE006AF0EE407A3B4C3B4900221D
:1008F0004FF07C539FED3A0A86EEA77A2046C4ED6E
:10090000057A02262161E2616360E36084ED020AF8
:10091000DFF8F09084ED067A0FF086FC40F20113C8
:100920002C482570A38584ED080A00F0B9F82D48FD
:100930000FF000FA40F2015340F6010240F60111B7
:10094000ADF80C6007A8ADF81030049BADF800209E
:100950000822ADF80410039901F034FA04230122AF
:1009600007A9214801F05CFA1F4801F023FC1F4948
:100970002B46012209681E48009501F021FD1D4902
:1009800033461D4809682A46009501F019FD1B49A8
:1009900010481B4E00F080F8154FDFF86C800121E5
:1009A0003846154C454601F005FE2046143401F04A
:1009B000F5FD45F8040FB442F7D13846143700214D
:1009C00008F1240801F0F6FD4F45E8D1642003F05A
:1009D0006DF8E1E76809002438090024DB0F49407D
:1009E0000000C8420009002480090024683401087E
:1009F000EC0700246C34010838070024DD070008E8
:100A0000EC070024F00800246005002408B519480C
:100A10000023194A19490360436103620FF010FC77
:100A2000154A174917480FF00BFC134A1649174887
:100A30000FF006FC164B03F58270143300224FF6BC
:100A40000B71834243F8082C23F8141C43E9042259
:100A5000F3D1104B03F1B400143300224FF60B71A5
:100A6000984243F8082C23F8141C43E90422F3D1DC
:100A700008BD00BF6809002400000024D107000859
:100A8000D507000838090024D90700080009002408
:100A9000EC07002438070024143001F061B900BFCE
:100AA000143001F059B900BFF0B5032399B0012506
:100AB0000027064609A80E97CDE912352A4B0F9359
:100AC00040F20453ADF84030284BCDE9147509933A
:100AD00001F07AFD09A801F055FE002836D1244B1B
:100AE00004AF04460790CDF84230102339460090F9
:100AF0008DF820301F4B049505930695CDE91650CF
:100B0000684601F0C7FF0823009A01A909A8ADF8BB
:100B100004508DF8064009940295039300F0D2F832
:100B200000230EA938463024049302F09DFD0322D1
:100B30004FF07E5309A906F114000B930C93CDE9F5
:100B40000942049A01F0CCF819B0F0BD40F6013228
:100B5000074B169704AFADF824200998CDF8423022
:100B6000179500F071F8DBE70402040403030001A9
:100B7000040604030704010B70B5314B0446314DE4
:100B800040F2011201262DED028B456082B0A36078
:100B900003F58133ADF8042040F2027203F580734F
:100BA00000202682E36040F6066384F8276084F81C
:100BB0002B60A4F82520A4F8293000918DF80600B8
:100BC00003F0DAF868BB694604F1300003F034F84A
:100BD000211D204602F080F904F1250001F0F4FC0B
:100BE00004F1290001F0F0FC04F1120000F08CF98E
:100BF00004F114052046FFF757FF284601F0ACF832
:100C00002846B0EE408A01F0A3F8D0ED007AF8EE65
:100C1000677A88EE277A84ED0E7A02B0BDEC028BFB
:100C200070BD0546694604F130008DF8066003F09A
:100C300003F8072DDCD0211D204602F04DF9D7E73F
:100C4000050705060508050910B584B0034601240B
:100C500003A8ADF80C30ADF80E4001F0B5FC21460C
:100C600003A801F09DFD204602F020FF002103A80B
:100C700001F096FD204602F019FF214603A801F07D
:100C80008FFD04B010BD00BF10B5C2F3002384B0C7
:100C90000C46017C8DF80D2043EA4402FA2402231D
:100CA0008DF80C2003AA009401F088FF18B10124EC
:100CB000204604B010BD04460A2002F0F7FE20468C
:100CC00004B010BD034670B543F8042B044684B04D
:100CD000FA2507C983E80700A1791E23009503AA16
:100CE0001A31ADF80C3020460223C9B2217401F04C
:100CF00065FF10B1012004B070BD0A2002F0D6FEDD
:100D00004FF4B85200950223ADF80C20204603AAF8
:100D1000217C01F053FF0028ECD10A2002F0C6FE2E
:100D200041F2027200950223ADF80C20204603AA7E
:100D3000217C01F043FF0028DCD10A2002F0B6FE3E
:100D4000042200950223ADF80C20204603AA217C42
:100D500001F034FF0028CDD10A2002F0A7FE0622C0
:100D600000950223ADF80C20204603AA217C01F057
:100D700025FF0028BED10A2002F098FE41F2082289
:100D800000950223ADF80C20204603AA217C01F037
:100D900015FF0028AED10A20064602F087FE009516
:100DA000022303AA217C2046ADF80C6001F006FF67
:100DB00000289FD1304602F079FE009522790C235D
:100DC0002046002A8DF80C3003AA4FF0020314BF0E
:100DD000622142218DF80D10217C01F0EFFE0028E8
:100DE00088D1304602F062FE2279D4E9023182F0E5
:100DF00001020B4343EA82136279DBB20AB143F08A
:100E000020030E22FA258DF80D302046009502238E
:100E10008DF80C2003AA217C01F0D0FE00287FF47D
:100E200069AF0A2002F042FE102200950223ADF8BD
:100E30000C20204603AA217C01F0C0FE00287FF48C
:100E400059AF0A2002F032FE122100950223ADF8BC
:100E50000C1003AA217C204601F0B0FE00287FF48C
:100E600049AF0A2002F022FE012209212046FFF7A5
:100E70000BFF003818BF01203DE700BFF0B5214D42
:100E800087B000240126102702A94FF4805228467B
:100E90000194CDE90267CDE9046409F0BDFD642049
:100EA00003F000FA022302A94FF48052284602936D
:100EB0000594CDE9037609F0AFFD042302A94FF4B0
:100EC000805228460397CDE904340323029309F0A6
:100ED000A3FD40F23223042202A9284601931023E5
:100EE0000496CDE90223019B4FF48052059309F04B
:100EF00093FD40F60601284609F0AEFD204607B0F6
:100F0000F0BD00BFAC09002470B51F4B88B00822AB
:100F10001E4E00214FF400641A614FF0020C039240
:100F20000A225E6020260692402205469960032030
:100F3000196210215C620124C3E905624FF4C0729A
:100F4000DC60DA6107229FED0E7BCDE900C204224E
:100F5000CDE904016946181D029283ED0A7B09F070
:100F600031FD38B92846FFF789FF003818BF012046
:100F700008B070BD204608B070BD00BFAFF3008060
:100F80000010000000000000A809002440410052A9
:100F90005E4A0023F0B514688FB00A93002C40F02D
:100FA000B2805B4B012103260C2511600227D3F888
:100FB000D420584842F48052C3F8D420D3F8D42027
:100FC00002F480520092009AD3F8E02042F010021E
:100FD000C3F8E020D3F8E02002F010020192019A59
:100FE000D3F8E02042F04002C3F8E020D3F8E0203C
:100FF00002F040020292029AD3F8E02042F0080286
:10100000C3F8E020D3F8E02002F008020392039A2C
:10101000D3F8E02042F48072C3F8E020D3F8E02057
:1010200002F480720492049AD3F8E02042F0800225
:10103000C3F8E020D3F8E02002F080020592059A80
:10104000D3F8E02042F02002C3F8E020D3F8E020FB
:1010500002F020020692069AD3F8E02042F0040241
:10106000C3F8E0204FF68372D3F8E0300B9603F01C
:1010700004030C9507930223079908A9CDE90823D7
:1010800004F07AFF48F2371308A9234808930C9517
:101090000997CDE90A4604F06FFF4CF2037308A9E3
:1010A0001E480893CDE90974CDE90B6504F064FF8F
:1010B00040F2FF6308A91A480893CDE90974CDE905
:1010C0000B6504F059FF4FF60C7308A915480893F7
:1010D000CDE90974CDE90B6504F04EFF4FF63F03EF
:1010E00008A911480893CDE90974CDE90B6504F00E
:1010F00043FF202308A90B4809970C950893CDE9D5
:101100000A4604F039FF0FB0F0BD00BFA409002467
:10111000004402580010025800180258000C0258EF
:1011200000200258001C0258001402582DE9F04F0C
:10113000DFF8F08389B00546144608F1180000AFC7
:101140000E4602F093FBD8F81820436962B3D8F832
:101150001C20D8F804A0002A0BBF4FF008094FF05C
:1011600010094FF0020B4FF0040BBAF1000F28D01A
:10117000A200E946012B02F1070222F00702ADEBC3
:10118000020D6846ADEB020DEB4600F03081022BFC
:1011900069D0002B00F0C98022465946D047CD4681
:1011A0002437BD46BDE8F08FD8F81C20002AF7D0C0
:1011B000D8F804A04FF008094FF0020BBAF1000F65
:1011C000D6D1FB61D8F80030BB61002BE8D0CD4808
:1011D00002F0B8FBBBF1020FFB693861C7F814D00D
:1011E00000F074816A464846C4F35D01A2EBC40274
:1011F0009546E946A9EBC40CC7F81C90E54602EBFE
:10120000810CEA466246ADEB000DC7F80CC00AEB54
:10121000810EEC46ADEB000D02EB8100CCF808002E
:1012200000EB8100CCF80C000EEB8100CCE90092C1
:1012300000EB8101E946C9E900AEC9E90201012BD1
:1012400000F05483022B00F05C82002B00F07281CE
:10125000620849466046BB699847D7F814D02437DE
:10126000BD46BDE8F08F002C96D0D8ED0C6A014643
:101270009FEDA57A00222B1D844655F822000831E7
:1012800007EE900A53F822000232F8EEE77A944211
:1012900067EE877A67EEA67A41ED027A07EE900A4A
:1012A000F8EEE77A67EE877A67EEA67A41ED017A83
:1012B000E3D8604659462246944DD047D8ED0D6A92
:1012C0000021331D9FED997A9FED996A904821E0A6
:1012D000F4EEC67AF1EE10FAC0F2CA840246DBEDF3
:1012E000017A46F8212066EEA77AF4EEC77AF1EE8D
:1012F00010FA40F2E980F4EEC67AF1EE10FAC0F28C
:10130000DD84024643F8212002310BF1080B8C42A8
:101310007FF645AFDBED007A66EEA77AF4EEC77A8A
:10132000F1EE10FAD4D82A46D9E7002C3FF434AFB6
:101330001A46D8ED0C6A9FED7C7A01462B1D35F9D3
:1013400022C0083107EE90CA33F922C00232F8EE0B
:10135000E77A944267EE877A67EEA67A41ED027AE1
:1013600007EE90CAF8EEE77A67EE877A67EEA67A1C
:1013700041ED017AE3D859462246D047D8ED0D6AAF
:101380000021331D9FED697A9FED696A614823E072
:10139000F4EEC67AF1EE10FAC0F2858447F6FE72DA
:1013A000DBED017A46F8212066EEA77AF4EEC77AE3
:1013B000F1EE10FA40F28680F4EEC67AF1EE10FA01
:1013C000C0F2668447F6FE7243F8212002310BF129
:1013D000080B8C427FF6E3AEDBED007A66EEA77A6F
:1013E000F4EEC77AF1EE10FAD2D80246D8E7002C14
:1013F0003FF4D2AED8ED0C6A84469FED477A0021C7
:101400002B1D55F821200CF1080C82F40002A2F5E6
:10141000000207EE902A53F821200231F8EEE77A15
:1014200082F400028C42A2F5000267EE877A67EE32
:10143000A67A4CED027A07EE902AF8EEE77A67EE8C
:10144000877A67EEA67A4CED017ADAD859462246B9
:10145000D047324DD8ED0D6A0021331D9FED337A10
:101460009FED336A2E4820E0F4EEC67AF1EE10FAD2
:10147000C0F206840246DBED017A46F8212066EED2
:10148000A77AF4EEC77AF1EE10FA19D9F4EEC67A1B
:10149000F1EE10FAC0F2E583024643F82120023152
:1014A0000BF1080B8C427FF67AAEDBED007A66EE2C
:1014B000A77AF4EEC77AF1EE10FAD5D82A46DAE721
:1014C0002A46EAE702467FE72A461BE7A0006108B2
:1014D000073020F00700ADEB000D6A46ADEB000DC4
:1014E000EA46ADEB090D02EB8100FA61EC46ADEB8B
:1014F000090D0AEB8101F860E946CCE90020C9E951
:1015000000A19CE6FC09002400000030007E008061
:101510000082FF7F0280FFFF000000347E0080FF1A
:1015200082FF7F00E00900240000003804FF7FBF35
:1015300004FF7F3F002C00F0C782BBF1020FD8F8F8
:10154000241000F0FB823A69DCF80C0001EB820EFB
:10155000DCF808109200C7F800905FED0D5A0EF10C
:10156000040AD7F81C903A611A46FE612B1D0E46FC
:10157000C7E901CB8446D7F80CB035F92210D8ED75
:101580000C7A06EE101A33F9221006EE901A3EF984
:101590002210B8EEC66A07EE101AF8EEE66A3AF9BB
:1015A0002210B8EEC77A26EE256A66EEA56A27EE07
:1015B000257A26EE276A66EEA76A27EE277A07EED7
:1015C000901A51080232F8EEE77A09EB8100944252
:1015D00080ED006A0BEB810067EEA57AC0ED006A32
:1015E00006EB81000CEB810180ED007A98ED0C7A1E
:1015F00067EE877AC1ED007ABFD8D7F8009062080D
:10160000BB694946FE69D7E901CB60469847D8F8DF
:101610002C303A69D8ED0D6A1A441FED3C7A1FED63
:101620003C6A331D904602F1040AA94D0022D9E913
:1016300000EC51E0F4EEC67AF1EE10FAC0F2CD8281
:1016400047F6FE7046F822000CEB0100D0ED007A60
:1016500066EEA77AF4EEC77AF1EE10FA4BD9F4EE03
:10166000C67AF1EE10FAC0F2C28247F6FE70BBF104
:10167000020F43F822002BD0D9F808000844D0ED1F
:10168000007A66EEA77AF4EEC77AF1EE10FA36D950
:10169000F4EEC67AF1EE10FAC0F2D98247F6FE7087
:1016A00048F82200D9F80C000844D0ED007A66EE24
:1016B000A77AF4EEC77AF1EE10FA1ED9F4EEC67AE4
:1016C000F1EE10FAC0F2B98247F6FE714AF8221024
:1016D000023294427FF6C1AD51080EEB81008900C1
:1016E000D0ED007A66EEA77AF4EEC77AF1EE10FA42
:1016F000A0D82846A6E72846B9E72946E6E72846BF
:10170000CEE7002C00F0E081BBF1020FD8F82430C6
:1017100000F0E1813A69DCF8081003EB820EDCF896
:101720000C009300C7F80090DFED6A5A0EF1040A2E
:10173000D7F81C9000223B612B1DFE610E46C7E9C5
:1017400001CB8446D7F80CB055F82210D8ED0C7AAE
:1017500007EE101A53F82210B8EEC76A07EE101AF7
:101760005EF82210F8EEC76A07EE101A26EE256A18
:101770005AF82210B8EEC77A66EEA56A26EE276AF6
:1017800027EE257A66EEA76A27EE277A07EE901AEB
:1017900051080232F8EEE77A09EB8100944280EDBD
:1017A000006A0BEB810067EEA57AC0ED006A06EBDC
:1017B00081000CEB810180ED007A98ED0C7A67EEE8
:1017C000877AC1ED007ABFD8D7F800906208BB696C
:1017D0004946FE69D7E901CB60469847D8F82C30D6
:1017E0003A69D8ED0D6A1A449FED3E7A9FED3E6A44
:1017F000131D9246DFF8E4C00022FB61331D364D15
:10180000D9E9008E4EE0F4EEC67AF1EE10FAC0F29D
:101810000682284646F822000EEB0100D0ED007A41
:1018200066EEA77AF4EEC77AF1EE10FA49D9F4EE33
:10183000C67AF1EE10FAC0F2F9812846BBF1020F28
:1018400043F822002AD0D9F808000844D0ED007AE5
:1018500066EEA77AF4EEC77AF1EE10FA35D9F4EE17
:10186000C67AF1EE10FAC0F2D38128464AF8220077
:10187000D9F80C000844D0ED007A66EEA77AF4EEB1
:10188000C77AF1EE10FA1ED9F4EEC67AF1EE10FA2C
:10189000C0F2B7812946F86940F82210023294421A
:1018A0007FF6DBAC510808EB81008900D0ED007AAF
:1018B00066EEA77AF4EEC77AF1EE10FAA3D8604686
:1018C000A8E76046BAE76146E5E76046CEE700BFB5
:1018D0000280FFFF000000300082FF7F007E00805A
:1018E0000000003404FF7FBF04FF7F3F002C00F0A6
:1018F000EB803A690021D8F82430C7F8089003EB50
:10190000820ED7F81C909300FE611FED0B6A0EF15A
:10191000040A3B612B1DFE6855F821204808D8EDCC
:101920000C6ABBF1020F82F40002A2F5000207EE7E
:10193000902A53F8212082F40002B8EEE77AA2F54B
:10194000000227EE067A07EE902A09EB8002F8EEF5
:10195000E77A27EE267A67EE867A82ED007A06EB42
:1019600080024FEA800067EEA67AC2ED007A27D0A7
:101970005EF8212082F40002A2F5000207EE902A10
:101980005AF8212082F40002B8EEE77AA2F50002AC
:1019900027EE067A07EE902ADCF80820F8EEE77AC0
:1019A000024427EE267A67EE867A82ED007A98ED79
:1019B0000C7ADCF80C2067EE877A0244C2ED007ADC
:1019C00002318C42A8D8D7F8089060466208BB69FB
:1019D0004946FE699847D8F82C303A69D8ED0D6A27
:1019E0001A441FED407A1FED406A131D9246DFF83E
:1019F000ECC20022FB61331DB44DD9E9008E4EE0EC
:101A0000F4EEC67AF1EE10FAC0F2CB80284646F822
:101A100022000EEB0100D0ED007A66EEA77AF4EE1C
:101A2000C77AF1EE10FA49D9F4EEC67AF1EE10FA5F
:101A3000C0F2C5802846BBF1020F43F822002AD02D
:101A4000D9F808000844D0ED007A66EEA77AF4EEE3
:101A5000C77AF1EE10FA35D9F4EEC67AF1EE10FA43
:101A6000C0F2B48028464AF82200D9F80C00084495
:101A7000D0ED007A66EEA77AF4EEC77AF1EE10FAAE
:101A80001ED9F4EEC67AF1EE10FAC0F29180294622
:101A9000F86940F82210023294427FF6DEAB51081A
:101AA00008EB81008900D0ED007A66EEA77AF4EEAB
:101AB000C77AF1EE10FAA3D86046A8E76046BAE705
:101AC0006146E5E76046CEE7224649466046BB6987
:101AD0009847FFF7C2BB98ED0C6A0021DFED7C6AE6
:101AE0002B1DD7F81CE0D7F80CA055F8212007EEE5
:101AF000902A53F82120B8EEE77A07EE902A4A0898
:101B00000231F8EEE77A27EE267A0EEB82008C425D
:101B10000AEB820267EEA67A27EE067A67EE867AED
:101B200080ED007AC2ED007ADFD83B69604662083A
:101B300049469B003B61BB6998474FE6194698EDC3
:101B40000C6ADFED646A2B1DD7F81CE0D7F80CA0F7
:101B500035F9212007EE102A33F9212007EE902ACB
:101B6000B8EEC77A4A080231F8EEE77A27EE267A0D
:101B70000EEB82008C420AEB820267EEA67A27EE19
:101B8000067A67EE867A80ED007AC2ED007ADFD8B9
:101B90003B696046620849469B003B61BB699847C8
:101BA00035E5F0EE675AFEEEE45A15EE900A2EE7A0
:101BB000F0EE675AFEEEE45A15EE901A68E7F0EE82
:101BC000675AFEEEE45A15EE900A34E7F0EE675AD3
:101BD000FEEEE45A15EE900A45E7DFED3F5A67EE58
:101BE000A57AFDEEE77A17EE900A00B22AE5DFED5E
:101BF0003A5A67EEA57AFDEEE77A17EE900A00B240
:101C000035E5F0EE675AFEEEE05A15EE901A42E620
:101C1000F0EE675AFEEEE05A15EE900A26E6F0EE78
:101C2000675AFEEEE05A15EE900AF3E5F0EE675AB9
:101C3000FEEEE05A15EE900A00E6DFED275A67EE59
:101C4000A57AFDEEE77A17EE901A09B23EE5DFEDD0
:101C5000225A67EEA57AFDEEE77A17EE900A00B2F7
:101C60001EE5F0EE675AFEEEE45A15EE902A14E4F3
:101C7000F0EE675AFEEEE05A15EE902AFFF72FBB02
:101C8000F0EE675AFEEEE45A15EE902AFFF7F3BB2A
:101C9000DFED115A67EEA57AFDEEE77A17EE902A8E
:101CA00012B2FFF791BBDFED0C5A67EEA57AFDEE9D
:101CB000E77A17EE902A12B2FFF772BBF0EE675A7E
:101CC000FEEEE05A15EE902AFFF71CBB82FF7F0064
:101CD000000000300000003800FEFF467E0080FF5C
:101CE00030B5184C154685B0046004F1080EEC467A
:101CF0000FC98EE80F00D4ED047AF5EEC07A8CE8B7
:101D00000F00F1EE10FA1ADDB7EE006A94ED057AD5
:101D100027EE277AC6EE276A84ED0D7AC4ED0C6AA9
:101D20006DB1204640F8185F01F0A0FD0649036937
:101D30000020064A2162A262E36005B030BD0120A6
:101D400005B030BDE0090024002000300000003064
:101D500000680830704700BF0068183001F0E0BD2F
:101D600030B5046883B00D46E3694BB1A368002029
:101D7000E26A616A9B00009004F11C0001F078FDAA
:101D8000A3680748A26A9B00216A009004F118002A
:101D900001F06EFD0020C4E9005003B030BD00BF6B
:101DA0002D110008064B302003214FF07E52C3E96D
:101DB0000201002000211A615A61C3E9060170473F
:101DC000E009002482B0082AADF800304FF0030388
:101DD000ADF804104380BDF80410BDF80830BDF81C
:101DE00000C0018003811346BDF80C1028BF0823F2
:101DF000042AA0F804C08181037406D8022A0AD8F4
:101E000001D10123C38002B070470123C380438105
:101E1000C38102B070470123C380438102B0704781
:101E20002DE9F04F4FF00008DFF81C93BB4C8DB04C
:101E300003700646BA4B174642600D4620224146C3
:101E40004846C4F85831C4F85491CDE90288CDE928
:101E50000488CDE90688CDE90888CDE90A880FF025
:101E600005FA2022414604F59970C4F82181C4F88E
:101E70002581C4F82981C4F82D810FF0F7F984F881
:101E80002071736884F83882002B00F0618143462A
:101E9000484604F5907105F1100AC6460197EF18FF
:101EA00055F803B0E2180EF1010ED7F80CC0D7F8C0
:101EB0000490D7F8088044F803B0C2F80CC04FF083
:101EC000000CC2F80490C2F808803F7C20F802CBD6
:101ED00017741AF8032001F8012F62B172684FF0ED
:101EE00001071133964584F83872D8D3019F002238
:101EF0000123FFB20CE077681133BE45CFD394F8CD
:101F00003832019F002BFFB206BF012203230123B9
:101F100084F8712100203278C4F888310023814987
:101F2000C4F8643184F8703184F87831C4F874717D
:101F3000C4E963334FF48023C4E957130821012314
:101F4000C4E95A310021C4E960017AB100200121BD
:101F5000013A84F89431C4E96801082A08D8DFE816
:101F600002F0A9A49F9A95908A837C0084F894211A
:101F70006D4802F0CFFD034608B1FFBEFEE702A99F
:101F80006948029302F022FF002864D1022140F246
:101F9000FF730A90CDE90713042194F820310991C9
:101FA000002B00F0D9808246074623E0022B00F088
:101FB0008680012B40F0DF8098F80130012B00F083
:101FC000AA80002B594B18BF0023059305A9584B35
:101FD000554853F82730069302F0C8F9002840F01E
:101FE000BE800AF1010A94F820315FFA8AF7BB42F9
:101FF00040F2B28007EB071904EB0908404600F0F5
:10200000E3FA98F81030042B6ADC022B7DDC7AD0DE
:10201000E319002283F8102114F80930002BC5D1F0
:1020200098F80130062B72D0072B00F0A080022B0D
:1020300000F09F80032B00F0A080002B00F0A18017
:10204000012B00F09C80042B00F09D80052B394B68
:1020500018BF0023B9E7FFBEFEE740F2FF324FF49E
:10206000A073C4E9662383E740F2FF124FF4907334
:10207000C4E966237CE7FF224FF48073C4E966233A
:1020800076E77F22E023C4E9662371E73F22C0237D
:10209000C4E966236CE71F22A023C4E9662367E72F
:1020A0000F228023C4E9662362E707226023C4E984
:1020B00066235DE703224023C4E9662358E798F8C6
:1020C0000130042B25D0052B40D0002B49D0012B0B
:1020D00049D0022B49D0032B174B18BF002374E7BC
:1020E000032309F1040504EB070B002625448BF8B4
:1020F00010312846013600F067FA9BF8103104359C
:10210000B342F6DC88E70123EBE70223E9E70B4B58
:102110005BE70B4B59E70B4B57E700BF180A00244E
:102120004040003000200240740B00240002B02523
:10213000703401080000B84F002090360800900C61
:102140001000C0102000F014004000300F4B3CE79E
:10215000FFB201220323DBE60DB0BDE8F08FFFBE26
:10216000FEE70B4B31E70B4B2FE70B4B2DE70B4BF0
:102170002BE70B4B29E7002327E70A4B25E70A4B00
:1021800023E70A4B21E70A4B1FE700BF000180212C
:102190000004002A0008302E001060328000501D1C
:1021A0000040C03A0080F03E00005247000021434A
:1021B0000000844B10B5084C40F2FF724FF0011143
:1021C000204602F0B1FD14F83C2C54F8081C2046BF
:1021D000BDE8104002F01ABB740B0024064B0F2917
:1021E000D3F8583198BF03EB011333F8123000EEE7
:1021F000103ABBEEC80A7047180A0024204B026848
:102200009A4200D070471F4B00221F48D3F8D810C5
:1022100030B51E4C41F0200183B0C4F8C001092044
:1022200004F5E075C4E97102C3F8D8104FF480607A
:10223000D3F8D81094F8383201F0200183F001036C
:1022400001911B02C4E973204FF40060C4F8DC3133
:10225000019B4FF40053C4F8D4012846C4F8D83188
:10226000C4E9782202F0D2FF08B1FFBEFEE704F510
:10227000AE73C4F8A851C4F8F83103B030BD00BF44
:10228000002002400044025840000240180A002486
:10229000014803F01BBB00BFD80B0024424B02686F
:1022A0009A4200D070472DE9F047404D95F83832FA
:1022B0000BB9BDE8F08795F82021002A48D005F138
:1022C0000C0805F5997605F59077002414E003F0E5
:1022D00001013380A8F1080017F811AC00F060FA92
:1022E000BAF1010F23D895F82021013408F1110823
:1022F0000236A3B29A4229D917F8013F002BF4D035
:10230000D5F854310021327833F81400D5F858311B
:1023100003EB041323F8120033883A7801339BB29D
:102320009A425FFA83F9D2D889460B46D1E7C9F3BE
:102330004001A8F1040000F033FABAF1020FC9F32A
:102340008001D0D0404600F02BFACCE795F8383227
:1023500083F001031648092100221B024FF4806418
:10236000C5F8C821C5F8DC314FF40053C5F8CC21BD
:10237000C5F8D041C5F8D831C5E970014FF4006106
:102380000C48C5F8D411C5E9782202F03FFF08B126
:10239000FFBEFEE795F82021D5F854110648BDE8A8
:1023A000F04702F033BA00BF00200240180A0024B0
:1023B00040000240D80B0024740B0024704700BF7B
:1023C00010B592B00180ADF80410C9B2149C0B296D
:1023D000C460C0E901232FD090F801E08446BEF12B
:1023E0000F0F29D8022A39D0032A04D0A2F1010202
:1023F000B2FA82F25209012B0E9205D0A3F1020328
:10240000B3FA83F35B095B00022C0F9306D0032C15
:1024100004D0A4F10104B4FA84F464090A291094E4
:102420000CD900231846CCF8103001230DA903FA6B
:102430000EF30D9303F0A0FD12B010BD55484B1ED6
:1024400000EB8120CCF81000092B00F29580DFE82A
:1024500003F08577695B4D3F312315071122CAE7E9
:102460004D4BD3F8E02042F48062C3F8E020D3F86B
:10247000E03003F480630C930C9BD6E7464BD3F813
:10248000E02042F40072C3F8E020D3F8E03003F417
:1024900000730B930B9BC8E73F4BD3F8E02042F44B
:1024A0008072C3F8E020D3F8E03003F480730A931D
:1024B0000A9BBAE7384BD3F8E02042F08002C3F819
:1024C000E020D3F8E03003F080030993099BACE7E8
:1024D000314BD3F8E02042F04002C3F8E020D3F8BB
:1024E000E03003F040030893089B9EE72A4BD3F8A3
:1024F000E02042F02002C3F8E020D3F8E03003F0FF
:1025000020030793079B90E7234BD3F8E02042F08A
:102510001002C3F8E020D3F8E03003F01003069374
:10252000069B82E71C4BD3F8E02042F00802C3F878
:10253000E020D3F8E03003F008030593059B74E72F
:10254000154BD3F8E02042F00402C3F8E020D3F8A2
:10255000E03003F004030493049B66E70E4BD3F8CA
:10256000E02042F00202C3F8E020D3F8E03003F0AC
:1025700002030393039B58E7074BD3F8E02042F094
:102580000102C3F8E020D3F8E03003F00103029326
:10259000029B4AE7000002580044025808B5012196
:1025A00043780069994089B203F0F2FE003818BF01
:1025B000012008BD01230A464178006903FA01F1B0
:1025C00089B203F0EBBE00BF8378022B30B504461E
:1025D0008FB03AD0032B36D0A3F10102B2FA82F2C7
:1025E0005209E3780A92012B05D0A3F10203B3FA52
:1025F00083F35B095B0000222046CDE90B3201F03A
:102600002FFD0546204601F033FD23780990082B65
:1026100013D8DFE803F02F4255687B8EA1051C001C
:10262000574BD3F8E02042F08002C3F8E020D3F803
:10263000E03003F080030793079B09A9284603F0C5
:102640009BFC0FB030BD1A46CBE71122C9E74C4BBB
:1026500009A92846D3F8E02042F48072C3F8E020AC
:10266000D3F8E03003F480730893089B03F084FCF4
:102670000FB030BD424B09A92846D3F8E02042F004
:102680000102C3F8E020D3F8E03003F00103009327
:10269000009B03F071FC0FB030BD394B09A92846EF
:1026A000D3F8E02042F00202C3F8E020D3F8E03093
:1026B00003F002030193019B03F05EFC0FB030BDF9
:1026C0002F4B09A92846D3F8E02042F00402C3F8B2
:1026D000E020D3F8E03003F004030293029B03F000
:1026E0004BFC0FB030BD264B09A92846D3F8E0209B
:1026F00042F00802C3F8E020D3F8E03003F008030A
:102700000393039B03F038FC0FB030BD1C4B09A9A9
:102710002846D3F8E02042F01002C3F8E020D3F8B6
:10272000E03003F010030493049B03F025FC0FB08A
:1027300030BD134B09A92846D3F8E02042F020020F
:10274000C3F8E020D3F8E03003F020030593059BA5
:1027500003F012FC0FB030BD094B09A92846D3F88D
:10276000E02042F04002C3F8E020D3F8E03003F06C
:1027700040030693069B03F0FFFB0FB030BD00BF84
:102780000044025838B5054601F06AFC0446284664
:1027900001F06EFC01462046BDE8384003F0F8BD6C
:1027A00070B506460D4601F05BFC0446304601F06C
:1027B0005FFC2A1E0146204618BF0122BDE870407A
:1027C00003F0ECBD70B5002386B012220293039390
:1027D00003680192032B01D804230493061D841D72
:1027E000304601F03DFC0546304601F041FC034611
:1027F00069462846009303F0BFFB204601F030FCF9
:10280000034620461C4601F033FC69460346204639
:10281000009303F0B1FB06B070BD00BF634A0368CC
:10282000934210B58CB028D0614A934258D0614A87
:10283000934200F09480604A934201D00CB010BDE6
:102840005E4C5F48D4F8E03043F00203C4F8E03057
:10285000D4F8E03003F002030A930A9BFFF7B2FFBB
:10286000D4F8F43043F08003C4F8F430D4F8F430F2
:1028700003F080030B930B9BE0E7504C5148D4F8D6
:10288000E03043F00203C4F8E030D4F8E03003F065
:1028900002030193019BFFF795FFD4F8E830002273
:1028A0001F2043F400131146C4F8E830D4F8E83090
:1028B00003F400130293029BD4F8D83043F00103D1
:1028C000C4F8D830D4F8D83003F001030393039B45
:1028D00002F0EAFA1F200CB0BDE8104002F022BB63
:1028E000364C3948D4F8E03043F08003C4F8E03087
:1028F000D4F8E03003F080030493049BD4F8E03074
:1029000043F00203C4F8E030D4F8E03003F00203EF
:102910000593059BFFF756FFD4F8E83000222120ED
:1029200043F480031146C4F8E830D4F8E83003F4E7
:1029300080030693069BD4F8D83043F00103C4F813
:10294000D830D4F8D83003F001030793079B02F086
:10295000ABFA21200CB0BDE8104002F0E3BA1B48EE
:10296000FFF730FF154B00224820D3F8E84011460E
:1029700044F40004C3F8E840D3F8E84004F4000449
:102980000894089CD3F8D84044F00104C3F8D84018
:10299000D3F8D83003F001030993099B02F084FABD
:1029A00048200CB0BDE8104002F0BCBA0054004012
:1029B00000580040005C0040001C005800440258D1
:1029C000E00E0024580C0024300D0024080E0024D2
:1029D000F0B5002287B0184B1021CDF802206F46C9
:1029E000CDF806209C46CDF80A206E46CDF80E2084
:1029F0000CF11805CDF812200CF1300EADF81620B0
:102A0000FF220E4B6C46ADF800101A700FCFACE8E9
:102A10000F0097E803008CE803000FCE0FC596E87F
:102A2000030085E803000FCCAEE80F0094E8030034
:102A30008EE8030007B0F0BD04000024540C00240D
:102A400010B5EFF3108472B6074B1A78120602D550
:102A500004B962B610BD1B78D820044A5BB200FBF3
:102A6000032002F033FFF3E7540C00246C0C002425
:102A7000014804F01DBB00BFE40C0024014804F031
:102A800017BB00BFBC0D0024014804F011BB00BF00
:102A9000940E00242DE9F0410F68D8253E4E84B0F5
:102AA00007FB05F5032F06EB050303603EDCCA6850
:102AB0000C46012A3AD84BD020689C4661684FF0FA
:102AC000D808A2680DF1100EE36808FB0768ACE8AF
:102AD0000F00324B227C8CF80020D8F808C00FCBB6
:102AE0000EE90F000EEB8703BCF1010F53F8103C09
:102AF000C8F88C3031D0BCF1020F42D0BCF1000FCD
:102B000035D08C35D823217C002203FB07630120BC
:102B100035444900C3E926022846C3F89410C3E9A6
:102B20002822C3E92A2204F0B9F818B1012004B020
:102B3000BDE8F0810146284604F0C6FA0028F5D128
:102B40000146284604F0EAFA003818BF0120EEE7F3
:102B50000A7C103A672AAFD9E8E701F00BF9104B6D
:102B600098420CBF0F4B104BC8F89030C9E701F0EA
:102B700001F90B4B98420CBF0C4B0D4BC8F8903031
:102B8000BFE701F0F7F8064B98420CBF094B0A4B20
:102B9000C8F89030B5E700BF580C00243434010861
:102BA000000E27072D0FB0303211D0205F43906008
:102BB0008A62E030200BA0101A0980102DE9F04144
:102BC000D0F8008082B00D4617461E4608F18C04EE
:102BD000204604F075FA2028FAD1D8F80C3073B9E1
:102BE0006D002046089C33463A46A9B2009404F092
:102BF000ABF8003818BF012002B0BDE8F081089B97
:102C000032463946204604F071F9F2E7044B1022AF
:102C10001A7483F8E82083F8C02183F8982270475B
:102C2000580C002430B5002395B04FF48071062273
:102C300004460B930692119312931393CDE90C1350
:102C4000CDE90E3301F098F807282AD004F11005D9
:102C500041F2883206A9284605F062F828B101231E
:102C6000012084F85C3015B030BD0223102206A983
:102C7000284602920022CDE90033012303934FF44A
:102C80008003CDE9042305224FF0807306926A4643
:102C90000F9341F2883305F0BFF90028DFD115B05A
:102CA00030BD0323DCE700BF70B50023A4B04FF0B4
:102CB00080724FF480750446ADF806301B93CDE961
:102CC0001E320122CDE91C53CDE92023CDE9223368
:102CD000002941D0F02300F1100516AEADF8063002
:102CE000C02341F2883231462846169305F018F881
:102CF00028B10123184684F85C3024B070BD41F23D
:102D000088320DF10601284605F076F803460028C2
:102D1000EFD105224FF480711093284608924FF0AE
:102D200080720D93119201221393149315930293C1
:102D30000592CDE90E139FED1A7B102141F28833E5
:102D4000CDE9032102AA08A98DED067B05F064F9FF
:102D50000028CED124B070BD00F1100516AE61235D
:102D600041F2883231462846169304F0D9FF0028F4
:102D7000BFD141F288320DF10601284605F0C0F8B6
:102D80000028B6D1BDF80630204623F0780343F082
:102D90004003ADF80630FFF745FF0028A0D0A8E7B4
:102DA00000000000000040002DE9F04F00234FF428
:102DB000807601254FF0807780462DED028BABB0F9
:102DC0008DF807302193139319931A931B9322962E
:102DD0001C952597CDE92333CDE92653CDE928333A
:102DE000CDE91463CDE9163306230E9300F0C4FF3A
:102DF000072828D008F1100441F288320EA9204695
:102E000004F08EFFF8B902234FF010094FF0050AC5
:102E100008AA0EA920460B951797CDF82890CDF853
:102E200038A09FED2B8BCDE9083341F288338DED2F
:102E30000C8B05F0F1F830B941F2883220461CA91C
:102E400004F06EFF40B10123184688F85C302BB0C7
:102E5000BDEC028BBDE8F08F4FF0400B41F28832A1
:102E60000DF1070120468DF807B004F0C5FF0028DA
:102E7000E9D141F288331CA902AA2046CDF870A0FE
:102E80002597CDE902BBCDE904958DED068B05F0C4
:102E9000C3F803460028D6D1139308AA19930EA9A4
:102EA0001A9320461B931496CDF838A01797CDF8A7
:102EB00028900B95CDE91533CDE9083541F28833DB
:102EC0008DED0C8B05F0A8F80028C0D0BBE700BF43
:102ED00000000000000040002DE9F0435A4CA3B070
:102EE0000E46046000F048FF072800F0A680306816
:102EF00025467168B26807C5B389284620F8043BA7
:102F0000267B677B04F0EEFEF0B9504B012E4FF0AC
:102F10000108E061236114BF4FF480134FF40003F4
:102F2000C4F81480C4F8188093FAA3F3B3FA83F3B7
:102F30004FF48079E062013B2063281DC4F824909F
:102F4000236204F063FE38B10123012684F85C306B
:102F5000304623B0BDE8F08366230B90119041F218
:102F60008832129006A913900693CDE90C90CDE912
:102F70000E00281D04F0D4FE0028E5D1992341F26B
:102F8000883206A9281D069304F0CAFE0028DBD16A
:102F900005231C9019906A4614934FF080731F907C
:102FA00014A91D93102320902190029341F288339D
:102FB000CDF80C809FED227BCDE91A90CDE9000879
:102FC000281D8DED047B05F027F80028BCD1314683
:102FD0002046FFF769FE0028B6D12046FFF7E4FE41
:102FE00006460028B0D1002FB2D1EB234FF00008E5
:102FF000CDF868904FF0000914934FF4406306AA8F
:1030000014A91B934FF40053281D189617934FF4DF
:1030100040431F961C93A0232096169306231993D2
:103020004FF0805321934FF04073CDE906891D93F3
:1030300005F06AF800288BD086E7032385E700BFF8
:103040000000000000004000B80F002400500052B3
:103050002DE9F04F8FB0414B0024026800AF9A4237
:103060007C63C7E90944C7E90B4403D03C37BD463C
:10307000BDE8F08F3A4B40F609213A48EA46D3F8CA
:10308000D42007F11C0607F1220B4FF0020942F48D
:1030900080424FF00308C3F8D420D3F8D42002F4C0
:1030A0008042BA60BA68D3F8E02042F04002C3F828
:1030B000E020D3F8E02002F04002FA60FA68D3F88A
:1030C000E02042F02002C3F8E020D3F8E02002F034
:1030D00020023A613A69D3F8E02042F01002C3F8C6
:1030E000E020D3F8E02002F010027A617A69D3F888
:1030F000E02042F00202C3F8E020D3F8E030F861AB
:1031000003F002033984BB61174B7B60BB697B68AA
:1031100053F8040F7B6000F0A3FF7B680546186836
:1031200000F0A6FF16F8013B786207F1240128465B
:10313000C7F830807B63C7E90A9402F01DFF5E4543
:10314000E5D100225C20114601F0AEFE5C2001F0CA
:10315000E9FE3C37D546BD46BDE8F08F0050005231
:10316000004402580A0A090914100024114B02688D
:103170009A4200D07047104A70B5D2F8D4300F4C44
:1031800023F4804304F11806C2F8D43054F8040F35
:1031900000F066FF0546206800F06AFF01462846F9
:1031A00003F02CF8B442F1D15C20BDE8704001F08E
:1031B000C7BE00BF00500052004402581410002443
:1031C000014805F031B800BFC80F0024084B1A1D94
:1031D000981D03F1080110B49C1C9A6603F10A02C1
:1031E000C3E91834C3E91B015DF8044B5A67704703
:1031F000B80F00242DE9F043821D05468BB0031D56
:1032000005F10A010830CDE9052305F10C02AB698F
:10321000CDE907010992002B3ED0EB69B3FA83F8A0
:103220004FEA58180123022205AE0AAF4FF00609F3
:1032300001920293039313E02B680BB3012B02D18D
:1032400022B30A230493204600F012FF03462046CF
:10325000009300F005FF694602F08EFEBE4212D0D8
:1032600056F8044B2B7922789342E5D1697963783B
:103270009942E1D1B8F1000FF0D02B68002BDDD1DD
:10328000CDF81090DFE70BB0BDE8F0836378022B38
:1032900014BF0A230823D5E74FF00108C2E700BF97
:1032A000A24A0368934270B505468AB07FD02032A7
:1032B00093427CD09E4A934204D02032934201D064
:1032C0000AB070BD9B4C9C48D4F8E03043F0010339
:1032D000C4F8E030D4F8E03003F001030593059B17
:1032E000D4F8E03043F00803C4F8E030D4F8E0301C
:1032F00003F008030693069BD4F8E03043F0400344
:10330000C4F8E030D4F8E03003F040030793079BA3
:10331000D4F8F03043F40003C4F8F030D4F8F030BF
:1033200003F400030893089BFFF764FFD4F8D82048
:10333000824B42F001022968D3F85C02C4F8D8201D
:10334000D4F8D82002F001020992794A099C9142EE
:1033500000F0AB80D3F88022013A18BF012292011D
:10336000002840F0D0807648582103F22C4403F521
:103370004775C3F82C0400232046C4E901124FF41A
:1033800080614FF48052636262614FF48042C4E90D
:1033900003314FF48073A261E3614FF40033236281
:1033A00001F034FF002800F09780FFBEFEE7614C7B
:1033B000624ED4F8E030304643F00103C4F8E03008
:1033C000D4F8E03003F001030093009BD4F8E03020
:1033D00043F01003C4F8E030D4F8E03003F01003F9
:1033E0000193019BD4F8E03043F04003C4F8E0308F
:1033F000D4F8E03003F040030293029BD4F8F0309D
:1034000043F48003C4F8F030D4F8F03003F48003C0
:103410000393039BFFF7EEFED4F8D830296843F0FE
:103420000103424A3068C4F8D8309142D4F8D83009
:1034300003F001030493049B27D0736A013B18BF78
:1034400001239B01002856D13D4A06F5E874582116
:10345000C036C6F8102100222046C4E901134FF4FB
:1034600080534FF48061626263614FF48073C4E9FA
:103470000321E3614FF480424FF40033A2612362E1
:1034800001F0C4FE08B3FFBEFEE7336A013B18BF7C
:1034900001239B0138BB02F5284206F5AC74572185
:1034A00028360C32C6F83021D5E7D3F87C22013A11
:1034B00018BF0122920178BB2248572103F56D7491
:1034C00003F52175C3F8B40355E7C6F88040C6F884
:1034D0008440A6630AB070BDC5F88040C5F884403A
:1034E000A5630AB070BD184A06F5AC745921283698
:1034F000C6F83021AFE7154A06F5E8745A21C03600
:10350000C6F81021A7E711485A2103F22C4403F50D
:103510004775C3F82C042EE70B48592103F56D7449
:1035200003F52175C3F8B40325E700BF0458014033
:10353000045C0140004402588C1200243010002426
:103540002800024010000240580002407000024073
:10355000014802F0BBB900BF88110024014802F005
:10356000B5B900BF00120024014802F0AFB900BF96
:10357000E4130024014802F0A9B900BF5C14002440
:103580001A4A0368934210B40BD02032934208D0F9
:10359000174A934216D02032934213D05DF8044B61
:1035A0007047144B0022D3F85442C3F85822D3E991
:1035B0009201002CF2D0D3F8502223465DF8044B40
:1035C000520818470B4B0022D3F8B044D3F8A40498
:1035D000D3F8A814C3F8B424002CDFD0D3F8AC245B
:1035E00023465DF8044B5208184700BF04580140B9
:1035F000045C014030100024184A0368934210B460
:103600000BD02032934208D0154A934217D0203273
:10361000934214D05DF8044B7047124BD3E99424C5
:10362000D3E992015208C3F85822002CF2D0234665
:1036300001EB820100EB82005DF8044B1847094B57
:10364000D3F8AC24D3F8B0445208D3F8A404D3F888
:10365000A814C3F8B424002CE9D1DBE704580140D6
:10366000045C0140301000242DE9F04F0C684FF449
:103670001777794E87B004FB07F7012C06EB070894
:10368000C0F8008000F39F804FF0000907F5127327
:103690000D468E4646F803903344C446C3F8049062
:1036A000C8F8509268A3D3E9002369A1D1E90001C9
:1036B000CDE9022306AB03EB8403CDE9040153F803
:1036C00010BC53F808ACBEE80F00ACE80F00BEE831
:1036D0000F00ACE80F009EE80300C8F828B0C8F857
:1036E000C0A08CE803002B69042B0DD8DFE803F0A1
:1036F0007F89930376004FF417734BF6803203FBF8
:1037000004639A64C3F8E020AA69002A56D02B6AA1
:103710000122002B14BF032102214FF4177303FB76
:103720000463C3E90B12EA69002A50D1696A0039BF
:1037300018BF01214FF4177303FB0463C3E931126F
:103740006B69022B06D8454A12F80390444A52F896
:10375000233001934FF417730022424907F12800E8
:1037600004FB03F3304403F1380E03F1500C03F172
:10377000D00503F1E80441F80E2033448E44CEF81E
:1037800004205A645A6341F80C208C44CCF804207D
:10379000DA654A510D446A60C3F8DC20C3F8CC20D6
:1037A0000A510C4401996260C3F8F42002234A468E
:1037B00006F0DCFE002838D0FFBEFEE7296A00399B
:1037C00018BF0121A9E7012007B0BDE8F08F6B6A9F
:1037D0000122002B14BF03210221ABE74FF4177322
:1037E000214A03FB04639A64C3F8E0208CE74FF49A
:1037F00017734FF4FA5203FB04639A64C3F8E02092
:1038000082E74FF417734FF47A5203FB04639A6410
:10381000C3F8E02078E74FF417734FF4FA4203FB44
:1038200004639A64C3F8E0206EE707F1C000022346
:103830004A460199304406F099FE0028C4D0FFBEE4
:10384000FEE700BFAFF3008004580140045C014074
:1038500024580140245C014030100024D034010879
:10386000C434010834100024007701000068704758
:10387000F8B5046816460F46C4F85032C4E99212EF
:10388000069AC4F85422A269012A24D0626A9DB221
:10389000012A10D02A46314604F1C00006F004FF88
:1038A000236A2A46012B0FD0314604F1280006F086
:1038B000FBFE0020F8BD2A4604F1C00006F07CFFA4
:1038C000236A2A46012BEFD1394604F1280006F07D
:1038D00073FF0020F8BD226A9DB2012A10D02A464B
:1038E000314604F1280006F0DFFE636A2A46012B08
:1038F0000FD0314604F1C00006F0D6FE0020F8BD1E
:103900002A4604F1280006F057FF636A2A46012B75
:10391000EFD1394604F1C00006F04EFF0020F8BD9B
:1039200003681B69042B05D8044A02EB830393ED5B
:10393000000A70479FED020A704700BFB0340108CB
:1039400000803B470368D3F858027047704700BFB8
:1039500008B500F095FCBDE8084001F06BBB00BF66
:10396000064808B503680BB102F01CFD0448036863
:103970001BB1BDE8084003F0FDBB08BDF8180024EA
:10398000F0140024064808B503680BB102F00AFDE4
:10399000044803681BB1BDE8084003F0EBBB08BD59
:1039A000F8180024F0140024064808B503680BB189
:1039B00002F0F8FC044803681BB1BDE8084003F0BE
:1039C000D9BB08BDF8180024F0140024364BDA6A7D
:1039D000520062D59A6A9A6A9A6A9B6A180600D55A
:1039E00000BE314B9B6A990600D500BE2E4B9B6AE8
:1039F000DA0600D500BE2C4B9B6A1B0700D500BE23
:103A0000294B9B6A980700D500BE274B9B6AD907B4
:103A100000D500BE244B9B6A1A0400D500BE224B81
:103A20009B6A9B0400D500BE1F4B9B6AD80400D53F
:103A300000BE1D4B9B6A190500D500BE1A4B9B6A40
:103A40005A0500D500BE184B9B6A9B0500D500BEE9
:103A5000154B9B6AD80500D500BE134B9B6A990194
:103A600000D500BE104B9B6ADA0100D500BE0E4B9C
:103A70009B6A1B0300D500BE0B4B9B6A580300D505
:103A800000BE094B9B6A990300D500BE064B9B6A9A
:103A9000DA0306D400BE00BEFEE7DB6A9B07FAD558
:103AA000F8E700BEF6E700BF00ED00E000F0FABB6B
:103AB0002DE9F041CEB004464C2200210AA80DF0B9
:103AC000D5FB2022002102A80DF0D0FBBC22002152
:103AD0001EA80DF0CBFB022003F0C6FF2368012BCC
:103AE0004FF0000350D0504A02250193C820D16AFC
:103AF0004E4B21F00101D162D26A02F00102019223
:103B00009A6942F440429A619B6903F440430193ED
:103B1000019B464A93699904FCD545490224002239
:103B200001268B6A4FF00408082723F00303234380
:103B30008B62052316900AA818934FF480331096D1
:103B40001394149417941994CDF854801A97CDE9CE
:103B50001B222122CDE90A2304F06EFC00B1FEE70E
:103B6000402329463F224FF480650993049002A820
:103B700005970895CDE906330323CDE9022304F028
:103B800089FF0346B8B1FEE7284A04250093F020D8
:103B90009169254B41F440419161926902F44042A0
:103BA0000092DA6A42F00102DA62DB6A03F0010392
:103BB0000093009BADE74FF480324FF480513B936C
:103BC0001EA846923C9322942F9433940624359158
:103BD0002197CDF8A8802C951F962396CDE9253105
:103BE000CDE93032CDE92D3300224FF440134FF4AC
:103BF0008071CDE93E2340F22712802343911021AA
:103C0000249334930C2329912093CDE92742202239
:103C10002B92084A1E9205F089F900B1FEE703F0E5
:103C200049FF4EB0BDE8F08100040058004802583A
:103C3000004402580F130F032DE9F0410D460446CE
:103C400084B0D1E9000184E8030000F0E9FAAE791C
:103C5000002E35D06C460AF07DF8FEF7B9FE08F06C
:103C600051FD09F0F9FD2B79002B52D16B799BB1F5
:103C7000BFF34F8FBFF36F8F3B4B0022C3F850222F
:103C8000BFF34F8FBFF36F8F5A6942F400325A610E
:103C9000BFF34F8FBFF36F8F00234FF0FF322146EA
:103CA000324802928DF80C30CDE9003309F02EF93C
:103CB0002E4809F093F908F07FF904B0BDE8F081CF
:103CC00020466C46FFF7F4FE012701F061F94FF042
:103CD00040534FF4807820460193254BADF8007097
:103CE000CDE9023801F072F919224FF04043204625
:103CF0008DF80F70ADF80D808DF801708DF80A60A9
:103D00008DF80820019301F061F9042001F04EF9CB
:103D1000A1E715490023C1F88430BFF34F8FD1F8D4
:103D2000803043F6E07EC3F3C906C3F34E334FEA57
:103D3000431C0CEA0E00334640EA8372013BC1F893
:103D400060225A1CF8D1ACF1200C1CF1200FF0D1EC
:103D5000BFF34F8F4B6943F480334B61BFF34F8FF9
:103D6000BFF36F8F82E700BF00ED00E0E81400248E
:103D70000E00010304F0BEBF1C4B9B6803F17842A8
:103D8000B2F5003F25D3B3F5803F20D303F1604265
:103D9000B2F5003F1FD303F15C42B2F5002F1CD3F4
:103DA00003F17042B2F5902F19D303F14842B2F5F6
:103DB000803F16D303F18042B2F1806F13D303F139
:103DC000E043B3F5000F34BF0720082070470120FF
:103DD000704700207047022070470320704704207E
:103DE0007047052070470620704700BF00ED00E0D7
:103DF00003480023034A044903600CF021BA00BFC2
:103E0000E8140024000000244D39000810B4204CB0
:103E10000022204B83B0D4F888101F4841F4700171
:103E2000C4F8881019681D4C41F0010119601A612D
:103E3000196808401A4918609A61DA611A629A6230
:103E4000DA621A635A639A63DA631A645A64186806
:103E500020F4802018601A66D3F8DC2042F060421B
:103E6000C3F8DC20D3F8DC300193019B23681940B0
:103E7000B1F1005F03D20B4B0122C3F80821044BC0
:103E80004FF000629A6003B05DF8044B704700BFCA
:103E900000ED00E0004402587FEDF6EA0010005CFF
:103EA0000000FFFF0080005100F57171D0F804049C
:103EB00007F07EBCC1EBC10300EB8303D0F8040420
:103EC000D3F8082207F0A2BCC1EBC10300EB8303C7
:103ED000D0F804049A6C07F0D3BC00BFD0F80404F7
:103EE00007F06EBDC16810B5044619B1022900D0B3
:103EF000FEE70121D4F8040407F04CFDD4F80404D3
:103F0000BDE8104007F01EBD10B50446D0F804040B
:103F100007F044FD2268D2F8003E43F00103C2F8E6
:103F2000003E236A23B1034A136943F00603136179
:103F300010BD00BF00ED00E0D0F8040407F038BD6C
:103F4000D0F8040407F04CBDD0F8040407F046BDD7
:103F5000D0F8040407F046BDD0F8040407F044BDCF
:103F60009446D0F898021A4608B5634603F06CFCF4
:103F700018B102280CBF0120022008BD08B5D0F8F6
:103F8000980203F0EFFC18B102280CBF01200220B8
:103F900008BD00BF08B5D0F8980203F027FD18B19E
:103FA00002280CBF0120022008BD00BF0A06D0F87D
:103FB000983206D4C1EBC10103EB810393F8FE01F3
:103FC000704701F07F01C1EBC10103EB810393F85E
:103FD0003E00704708B5D0F8980203F01FFC18B1F6
:103FE00002280CBF0120022008BD00BF08B5D0F890
:103FF000980203F08FFC18B102280CBF01200220A8
:1040000008BD00BF08B5D0F8980203F05BFC18B1FA
:1040100002280CBF0120022008BD00BFD0F8C0025A
:1040200007F084BFD0F8C00207F098BFD0F8C002F4
:1040300007F0A0BF704700BFD0F8C00207F086BFEE
:10404000D0F8C00207F086BF08B5D0F8D00302F060
:104050005BFD18B102280CBF0120022008BD00BF83
:10406000024B027853F82200704700BF0435010864
:10407000024B427833F81200704700BFE434010865
:104080008CB00A2814D8DFE800F023313F4D5B697B
:104090007785930615004D4BD3F8E02042F400726B
:1040A000C3F8E020D3F8E03003F400730A930A9BCE
:1040B0000CB07047454BD3F8E02042F48062C3F85F
:1040C000E020D3F8E03003F480630B930B9BEFE721
:1040D0003E4BD3F8E02042F00102C3F8E020D3F8D1
:1040E000E03003F001030193019BE1E7374BD3F884
:1040F000E02042F00202C3F8E020D3F8E03003F001
:1041000002030293029BD3E7304BD3F8E02042F046
:104110000402C3F8E020D3F8E03003F00403039373
:10412000039BC5E7294BD3F8E02042F00802C3F80F
:10413000E020D3F8E03003F008030493049BB7E7D2
:10414000224BD3F8E02042F01002C3F8E020D3F86D
:10415000E03003F010030593059BA9E71B4BD3F850
:10416000E02042F02002C3F8E020D3F8E03003F072
:1041700020030693069B9BE7144BD3F8E02042F004
:104180004002C3F8E020D3F8E03003F04003079387
:10419000079B8DE70D4BD3F8E02042F08002C3F877
:1041A000E020D3F8E03003F080030893089B7FE71A
:1041B000064BD3F8E02042F48072C3F8E020D3F835
:1041C000E03003F480730993099B71E700440258BF
:1041D000704700BF0F4B1B780BB90120704710B51B
:1041E00004464FF47A700C4AB0FBF3F31068B0FB4E
:1041F000F3F000F0B7FE08B90F2C01D9012010BD73
:10420000002221464FF0FF3000F04EFE034B00200D
:104210001C6010BD540000245000002458000024ED
:1042200038B50320124D00F02DFE124C04F092FB25
:10423000114A12499369C3F30323CB5C03F01F03B4
:1042400020FA03F30E202B60926902F00F028A5CC1
:1042500002F01F02D3402360FFF7BCFF10B101241E
:10426000204638BD0446FFF7B3FF204638BD00BFE7
:10427000500000244C00002400440258D4340108AB
:10428000034A044B11681B780B441360704700BF4E
:10429000BC1B002454000024014B1868704700BF69
:1042A000BC1B002438B50446FFF7F6FF0546631C27
:1042B00002D0044B1B781C44FFF7EEFF401BA042CA
:1042C000FAD338BD54000024014B1868000C704725
:1042D0000010005C704700BF806B08B5FFF7FAFF65
:1042E00008BD00BF836B5A6D12F0500F5A6D10B5A8
:1042F0001DD1196842F400725A650A6812F0080F5D
:10430000CA681BD012F4406F0DD1CA6894040AD455
:104310005A6D22F480725A655A6DD10403D45A6DD5
:1043200042F001025A651846FDF7B8FF10BDD206EB
:104330000AD4DB6CBDE81040DB6C18479007E7D06F
:104340001846FDF7ABFFF1E71846FEF737F810BD4A
:10435000806B08B5436D43F040034365836D43F0C4
:1043600004038365FEF72AF808BD00BFF0B50022FC
:1043700083B0019290F85020012A00F01C814FF088
:10438000010C0268034680F850C09068440745D489
:104390000868C0F31304002C40F09480C0F38460DC
:1043A0000CFA00FCD5694C6845EA0C054FF01F0C6F
:1043B0004FEA941E04F01F04D56102F130050EF09F
:1043C0000C0EA0400CFA04FC55F80E4024EA0C0C2C
:1043D0004CEA000045F80E00906810F0040F906859
:1043E00001D1000724D59068C70715D4CE680868A6
:1043F00006F01807BD4CD2F8C050FC40C0F31307BC
:10440000044025EA07052C43C2F8C040B84CA64238
:1044100000F0958000285EDB002004E05A6D01204A
:1044200042F020025A65002283F8502003B0F0BD0C
:104430000C6802F1140C4FF0070E8E68E50DC4F302
:10444000045405F004050EFA04FE06FA04F45CF8C0
:10445000050020EA0E0020434CF80500A54800683E
:1044600000F07040B0F1805FD06862D010F0100FA3
:104470004D69D06840F0BF80C0F3820040008540A5
:104480000E69042E00F09A8002F16004086854F866
:10449000267000F0F84007F0004C40EA0C0028437A
:1044A00044F826004D7E0E69A5F1010554F826005A
:1044B000B5FA85F520F000406D0940EAC57044F872
:1044C000260090E790FAA0F4B4FA84F4C0F3846074
:1044D0000CFA04FC66E788498A4200F0B08001F5D6
:1044E00080718A4200F0AB8001F1C051834D01F52B
:1044F00084418C68AE68F60790D4814E04F0E07772
:10450000B04200F005817F4EB04200F0E0807E4D69
:10451000A84281D160023FF57FAF784882427FF4A4
:104520007BAF8A6822F0E0723A4342F480028A60EC
:1045300072E7C0F382004D6940008540A0E7002F7C
:104540005ED090FAA0F4B4FA84F4013404F01F04AD
:10455000092C00F29B8090FAA0F4B4FA84F490FA4B
:10456000A0F5B5FA85F5013401260135A40605F05C
:104570001F0504F0F84406FA05F52C4390FAA0F064
:10458000B0FA80F0304400F01F0000EB400000055E
:10459000204302F114060727C50DC0F3045005F0AF
:1045A00004058740745924EA07048F6887403C4318
:1045B000745108682EE7022003B0F0BD106E0D683C
:1045C00000F0F840AC06B0EB856F33D0506E00F0D1
:1045D000F840844224D0906E00F0F840844224D009
:1045E000D06E00F0F84084427FF4FDAED06E20F033
:1045F0000040D066F7E6400800F0080085403FE73D
:10460000800E013000F01F05092D31D884060120ED
:1046100004F0F844A840044305EB45000005B7E763
:10462000506E20F000405066D5E7906E20F00040BC
:104630009066D5E7106E20F000401066C6E72E4D5C
:10464000324905F580758C6855F8F86CAD68ED0752
:104650003FF5E4AEF7073FF5E1AE294DA8423FF440
:10466000DBAE284DA8423FF4D7AE04F0E0774EE72A
:104670008406012605EB450004F0F84406FA05F52A
:104680001E382C43000540F0007081E790FAA0F43A
:10469000B4FA84F490FAA0F5B5FA85F50134012650
:1046A0000135A40605F01F0504F0F84406FA05F5E7
:1046B0002C4390FAA0F0B0FA80F0304400F01F00D4
:1046C00000EB40001E38000540F0007060E7E40198
:1046D0003FF5A2AEAA427FF49FAE8A6822F0E07254
:1046E0003A4342F080728A6096E600BFFFFF0F00F7
:1046F0000000FF470010005C0020024000600258EC
:10470000000084CB000052C70000B8CF0023024055
:1047100026023FF581AEAA427FF47EAE8A680D483C
:1047200022F0E0723A4342F400028A6002680A49C9
:104730009209A1FB0212920952000192019A002AE9
:104740003FF46AAE019A013A0192019A002AF9D126
:1047500062E600BF50000024632D3E0503689A689E
:10476000D20701D5002070479968234A114270B5DD
:10477000044609D0636D012043F010036365A36D07
:1047800043F00103A36570BD99681C4A0A4042F0DA
:1047900001029A60FFF780FD2368194A054693429B
:1047A00021D002F5807293421DD002F1C05202F571
:1047B00084429268114E0AE09A68324042F0010247
:1047C0009A60FFF769FD401B0228D3D823681A6856
:1047D000D2070FD49A68D107EED5FFF75DFD401BD5
:1047E0000228F3D9C6E7074A9268D006E2D0064A03
:1047F0009342DFD1002070BD3F000080C0FFFF7FEB
:104800000020024000230240002102402DE9F04137
:10481000384B044600680E461746984257D003F5B9
:104820008073984253D0344B9B68856815F004051B
:1048300053D194F85020012A4FD003F01F0840F2C2
:104840002123012023FA08F384F8500003404BD0C1
:104850002046FFF783FF002842D1626D274B216875
:10486000134043F480736365B8F1000F02D0244B0A
:10487000994203D0636D23F480136365636D13F471
:10488000805335D0A36D23F00603A365E06C3B464F
:104890001C4D32464031C5631B4D05641B4DC5643C
:1048A0001C2541F8405C002584F8505051F83C5CD0
:1048B00045F0100541F83C5C00F050FE2268144BB6
:1048C00091680B4043F004039360BDE8F081114B05
:1048D0009B68856815F00405ABD00220BDE8F08127
:1048E00084F85050BDE8F08184F85030BDE8F08184
:1048F000A365CBE70020024000630258FEF0FFFFF3
:1049000000210240E5420008D94200085143000856
:10491000C0FFFF7F0023024038B503689A68910703
:1049200002D59B68002038BD9A68D207FAD59A68EC
:10493000044602F00D02012A09D0636D012043F004
:1049400010036365A36D43F00103A36538BD986848
:104950000321094A024042F002029A601960FFF7FF
:104960009BFC054623689B68DB07DBD5FFF794FCBF
:10497000401B0228F6D9E0E7C0FFFF7F38B55C4A4C
:1049800004460368934226D002F58072934222D0F7
:10499000584B9B6813F4403F22D004F095F96368AC
:1049A0000546B3F5003F00F08F80B3F5403F7FD060
:1049B000B3F5803F00F08880FFF786FC41F20303E7
:1049C000984256D84C4B9D4266D92268936843F46E
:1049D0008073936038BD494B9B6813F4403FDCD132
:1049E0004FF4002005F01EFB63680546B3F5101F69
:1049F00074D008D8B3F5E01F64D022D9B3F5001FF6
:104A0000DAD14509D8E7B3F5201F59D0B3F5301FE7
:104A1000D2D1FFF759FC41F2030398423CD9384BFD
:104A20002A0AB3EB152F3DD2364B374913448B423C
:104A300056D82268936823F4407343F480739360DC
:104A400038BDB3F5801F06D00AD9B3F5A01F02D038
:104A5000B3F5C01FB0D19B0C5B00B5FBF3F5ABE722
:104A6000B3F5002FF7D023F40022B2F5802FF2D057
:104A7000A2E7234B9D4215D9224B234A2B44934254
:104A8000D7D9224B224A2B44934229D922689368D2
:104A900043F44073936038BD2268936823F48073B5
:104AA000936038BD2268936823F44073936038BDE7
:104AB0008508FFF709FC41F203039842D9D881E742
:104AC000C50979E7050977E71B0CB5FBF3F5FFF797
:104AD000FBFB41F203039842CBD873E785096BE7F0
:104AE0002268936823F4407343F40073936038BDE5
:104AF0000020024000630258002D310100230240D3
:104B0000105E5F00EFA1A0FF0F5E5F00DF4341FF7B
:104B10001FBCBE0030B5002383B00193002800F015
:104B2000A880456D0446002D00F0A9802268936896
:104B3000990003D59168704B0B4093609368DB003C
:104B400015D46E4B90686E491B6801406D489B09F7
:104B500041F08051A0FB030391609B090193019BED
:104B60002BB1019B013B0193019B002BF9D1936871
:104B7000DD0000F18280636D012543F01003636561
:104B8000A36D2B43A365936813F0040F636D6CD181
:104B9000D8066AD4636D23F4817343F0020363651E
:104BA0009368D9070CD4584B9A4200F0818003F5E2
:104BB00080739A427CD0554B9B68D90740F189801D
:104BC000FFF782FB41F20303A1689842237F5CD880
:104BD00094F815C01A04206B42EA4C3202430A438F
:104BE000012B03D1236A013B42EA4342636A23B1AA
:104BF00003F47873A16A0B431A4323684449D868C5
:104C000001401143D9609A6812F0040F9A681CD1D0
:104C100012071AD4D8683F4A217D024042EA813205
:104C2000E16A0A43DA6094F83820012A53D01A69FD
:104C300022F001021A611A692046616B22F070426B
:104C40000A431A61FFF79AFE2368E268012A27D017
:104C50001A6B22F00F021A63636D284623F00303D8
:104C600043F00103636503B030BD636D43F010038F
:104C700063650125284603B030BD002583E7FDF7B5
:104C8000BDFAA56584F8505050E71029A0D1617D88
:104C90001A0442EA4132216B0A4342F01C029FE7A8
:104CA000196BA26921F00F01013A0A431A63D3E795
:104CB000154A194B92689B68DB0781D4D0073FF5F2
:104CC0007FAF164A9368616823F47C130B439360AB
:104CD00076E7134AF6E7D4E9102118690A43114927
:104CE00001400A43A16C0A43E16B42EA014242F0EF
:104CF00001021A619FE700BFC0FFFF5F5000002460
:104D0000C0FFFF6F632D3E05002002400060025887
:104D100003C0F0FFFCBFFFFF002102400023024060
:104D2000006302581EF800FCF0B5002383B0019325
:104D300090F85030012B40D0012304460E46154612
:104D400080F85030FFF7E8FDE8B9676D05F0804264
:104D50001B4B06F4803125683B4043F0020363653A
:104D6000184BAE68334013430B4343F00043AB6032
:104D7000AB68154A002B0FDB636D23F0030343F090
:104D80000103636503E0636D43F010036365002373
:104D900084F8503003B0F0BD019B01330193019BB7
:104DA0009342E5D9636D0022012023F0120384F8B9
:104DB000502043F010036365ECE7022003B0F0BD20
:104DC000FDEEFFFFC0FFFE3FFF955A55F0B490F88F
:104DD00050200D68012A34D00346264C01201A6861
:104DE00083F85000A24208D05A6D002142F0200200
:104DF00083F850105A65F0BC70471F4884686407F8
:104E00000AD592685A6D012042F020025A650022AC
:104E100083F85020F0BC704794686607F2D49DB9BF
:104E200016498C6824F440448C6094688268D507E5
:104E300005D4E20703D48868114A02408A60002042
:104E4000E5E70220F0BC70470C4E4F68B46824F4CC
:104E500040443C43B46094688268D707EFD4E007CD
:104E6000EDD48A68B06806492A4301400A43B2601B
:104E7000E5E700BF0020024000210240002302407D
:104E8000E0F0FFFF06494FF6FF0C0002054BCA6831
:104E900000F4E06002EA0C0210430343CB60704769
:104EA00000ED00E00000FA051B4BDB68C3F30223B2
:104EB00000B5C3F1070E03F1040CBEF1040F28BFC7
:104EC0004FF0040EBCF1060F1AD9033B4FF0FF3C24
:104ED0000CFA03FC22EA0C024FF0FF3C00280CFA0B
:104EE0000EFC21EA0C0101FA03F141EA02010ADB9E
:104EF00009010A4BC9B2034483F800135DF804FBAF
:104F000000221346E8E700F00F000901044BC9B284
:104F1000034419765DF804FB00ED00E000E100E0D9
:104F2000FCEC00E0002807DB00F01F010123400932
:104F3000024A8B4042F82030704700BF00E100E099
:104F400000280CDB4309012200F01F000449203334
:104F5000824041F82320BFF34F8FBFF36F8F70471C
:104F600000E100E0431EB3F1807F01D301207047D0
:104F70004FF0E022002005494FF0F00C5361072369
:104F800081F823C090611361704700BF00ED00E01D
:104F9000BFF35F8F044B00215A6A22F480325A62B9
:104FA000C3F89410704700BF00ED00E0064B40F0DE
:104FB0000100C3F894005A6A42F480325A62BFF387
:104FC0004F8FBFF36F8F704700ED00E0174A4378B3
:104FD000C2F89830017821B3436800B5C2F89C301C
:104FE000C37A90F80CC01B0690F80FE043EA0C73EC
:104FF00090F80AC00B43817B43EACC4390F80DC084
:1050000043EA8C4390F809C043EA4143017A43EAFA
:105010000E4343EA0C2343EA4103C2F8A0305DF893
:1050200004FBC2F89C10C2F8A010704700ED00E02D
:10503000704700BF08B5FFF7FBFF08BD36490246C1
:1050400003688B4233D01831591AB1FA81F14909FA
:1050500069BB324883423ED0183083423ED018307C
:10506000834234D0183083423BD0183083423ED044
:10507000183083422AD000F55670834235D0284933
:105080008B4231D018318B4234D018318B4234D01E
:1050900018318B4234D018318B4234D018318B42C6
:1050A00034D018318B4234D023F0FF0011E0DBB252
:1050B0001C491D48103BA1FB031310B41B091B4CDA
:1050C000E15C5DF8044BC2E91601704716211848EF
:1050D000D1659065704710211348F9E716211248F1
:1050E000F6E706211248F3E706211248F0E71021FF
:1050F0000F48EDE710210F48EAE716210D48E7E7D2
:1051000000210D48E4E706210B48E1E710210A4899
:10511000DEE716210848DBE71000024040000240AD
:1051200028040240ABAAAAAA0000024034350108B4
:105130000400024000040240040402400368274ABD
:10514000274930B4274D284CAB4218BF93420CBFBF
:10515000012200228B4208BF42F001022831A34203
:1051600008BF42F0010228348B4208BF42F001021E
:105170002831A34208BF42F001028B4208BF42F02F
:10518000010212B9194A934213D1DBB21849194AE4
:10519000083B194CA1FB0313012102EB1312C3F3CB
:1051A0000413920001FA03F38366C0E9182430BCAB
:1051B0007047D9B2114A124C10391A44A4FB01416C
:1051C000A82A4FEA111100D808310E4A01F01F0435
:1051D00001230A44A3400C4C9200E5E7085402580E
:1051E000305402581C5402584454025894540258E3
:1051F000CDCCCCCC0096001680580258F0FBFDBFF9
:10520000ABAAAAAA008200108008024070B504462A
:10521000FFF742F8002C00F0FB8023680546A74A00
:10522000934200F0988018329A1AB2FA82F2520928
:10523000002A40F09080A2498B4200F0DE801831B5
:105240008B4200F0DA8018318B4200F0D6801831A2
:105250008B4200F0D28018318B4200F0CE801831A2
:105260008B4200F0CA80974A934274D0183293421E
:1052700071D0183293426ED0183293426BD01832EC
:10528000934268D01832934265D01832934262D06C
:10529000183293425FD08C4A8C488D49834218BFA4
:1052A000934200F128000CBF012200228B4208BF6C
:1052B00042F001022831834208BF42F00102283047
:1052C0008B4208BF42F001022831834208BF42F0FE
:1052D00001028B4208BF42F001021AB97D4A934293
:1052E00040F03281022200217B4D84F8341084F892
:1052F00035201A681540A268402A00F02381A2F1E7
:105300008002B2FA82F252099003266AD4E90312AB
:10531000D20842EAD102616942EAD102A16942EAB5
:10532000D102E16942EAD1026C4942EA16121944FB
:105330002A4310436A4AA2FB0121186020460B0948
:105340009B00E365FFF77AFEE16D012201F01F018A
:105350008A40426036E00021022284F8341084F84A
:1053600035201A6822F001021A6005E0FEF794FF6A
:10537000431B052B47D823681A68D107F6D4D4E914
:10538000022521692A43A0691D680A4361690A430D
:10539000E16902430A4353492940256A2A430A43E3
:1053A000616A042936D01A605A6922F00702114353
:1053B00059612046FFF742FEE26D3F2302F01F02D3
:1053C000934083602046FFF7B9FEA368802B6CD022
:1053D0006368A06ED9B2013BD4E91852072B29604B
:1053E00050602DD90023E366236763670023012201
:1053F0006365184684F8352070BD022184F8342096
:1054000084F83510ADE720220323626584F8353037
:10541000012070BDD4E90B5129431143A26A1960E0
:10542000596921F00701114341F00401002DBFD05B
:1054300000285DD1012A7BD032F00202B8D15FE0B2
:105440002268481E204B214DAA4218BF9A4205F1FE
:1054500014050CBF01230023AA4208BF43F0010337
:105460001435AA4208BF43F001031435AA4208BF0D
:1054700043F001031435AA4208BF43F00103143579
:10548000AA4208BF43F0010313B9124B9A4254D108
:10549000154A164D0A449200012300218340C4E9B5
:1054A0001B25636711606B60A0E70023A16ED4E940
:1054B000180263600360516094E700BF100002406F
:1054C0004000024010040240085402581C54025884
:1054D00030540258945402580F00FEFFF8ABFDA759
:1054E000CDCCCCCC3F8010FE3F96001640590258E0
:1054F000B0F5005F0DD0022A05D9032A7FF458AF1A
:10550000EA017FF555AF40220123626584F835300A
:105510007EE7032A3FF64CAF01A050F822F000BF0F
:1055200007550008015500080755000831550008C7
:10553000B5F1C07F7FF43CAFE5E7064A064D0A446B
:105540009200A9E71020E0E640220323626584F878
:1055500035305DE73F82001040090240002800F02E
:10556000D2802DE9F04F90F8344083B0012C00F048
:10557000C680012480F8344090F83540012C09D0D1
:1055800000224FF4006380F834204365012003B00B
:10559000BDE8F08F02248C4D8C4E80F835400024FD
:1055A0008B4F44650468B44218BFAC4206F118063C
:1055B0000CBF01250025B44208BF45F0010506F5E2
:1055C0005676B44208BF45F001051836B44208BF0C
:1055D00045F001051836B44208BF45F001051836FC
:1055E000B44208BF45F001051836B44208BF45F083
:1055F00001051836B44208BF45F00105A6F58666D8
:10560000BC4218BFB44206F589660CBF4FF0010ECC
:105610004FF0000EB44208BF45F00105A6F58666BE
:10562000B44208BF4EF0010E06F58966B44214BFBD
:10563000AC4645F0010CA6F59266664D4EEA0C07A5
:10564000B44218BFAC422668019726F001060CBF91
:105650004FF0010B4FF0000B2660C66ED0F858805B
:1056600001D0002F51D0D0E919757D6046B1D0E945
:105670001C576F60BBF1000F02D1019D002D4BD074
:10568000C56D4FF03F0905F01F0A09FA0AF9C8F87D
:105690000890D4F8008028F48028C4F80080636063
:1056A0008368402B28D0A160E260BBF1000F02D1DB
:1056B000BEF1000F70D0236823F01E0343F01603E1
:1056C0002360036C1BB1236843F008032360036E5F
:1056D0001A68D20303D51A6842F480721A601EB1A8
:1056E000336843F4807333602368002043F0010380
:1056F000236003B0BDE8F08FA260E160D5E702202F
:1057000003B0BDE8F08F01207047D0E919576F60F2
:1057100016B1D0E91C576F60DFF8BCE0DFF8BC9031
:105720004C4518BF744509F128090CBF4FF0010E14
:105730004FF0000E4C4508BF4EF0010E09F1140960
:105740004C4508BF4EF0010E09F114094C4508BF45
:105750004EF0010E09F114094C4508BF4EF0010E40
:1057600009F114094C4508BF4EF0010EBEF1000FBF
:1057700003D1DFF86CE074450ED1C56D4FF0010E1A
:1057800005F01F090EFA09FEC8F804E0636083689B
:10579000402B16D0A160E260BCF1000F8BD12368D2
:1057A00023F00E0343F00A032360036C002B8ED01A
:1057B0002268036E42F0040222601A68D1038AD480
:1057C0008DE7A260E160E7E788000240A0000240A8
:1057D00040000240100002401C5402580854025875
:1057E0009454025800286DD038B590F83530022B0B
:1057F0005BD10368344A93425BD01832934258D04D
:105800001832934255D01832934252D018329342F4
:105810004FD0183293424CD01832934249D01832AC
:10582000934246D002F55672934242D018329342C8
:105830003FD0183293423CD01832934239D01832BC
:10584000934236D01832934233D01832934230D03C
:10585000183293422DD01A68056E22F00E02C16DE7
:10586000846D1A6001F01F011A6822F001021A60AB
:1058700001232A688B4022F480722A606360C36E21
:10588000D0E91921516033B11A68D0E91C1422F40F
:1058900080721A604C6000210122036D80F8341080
:1058A00080F8352063B198470AE0802343650120E2
:1058B00038BD042280F835201A6822F001021A60EF
:1058C000002038BD01207047100002402DE9F04152
:1058D0000022464B82B0846D06461D680192036823
:1058E000434A44482768934218BF834221680CBF4B
:1058F0000120002000F086801832934200F07C8264
:105900001832934200F078821832934200F0858278
:105910001832934200F081821832934200F07D8267
:105920001832934200F0798202F55672934200F0E9
:1059300074821832934200F070821832934200F061
:105940006C821832934200F068821832934200F061
:1059500064821832934200F060821832934200F061
:105960005C821832934200F05882234A23488342D3
:1059700018BF934200F114000CBF012200228342A1
:1059800008BF42F001021430834208BF42F0010216
:105990001430834208BF42F001021430834208BF32
:1059A00042F001021430834208BF42F0010212B9F2
:1059B000134A934216D1F06D04251A6800F01F00B7
:1059C00085400D4200F08382570740F18082100429
:1059D000656040F1AF82D10300F1B282B36C002B5D
:1059E00040F0F48102B0BDE8F08100BF5000002417
:1059F0002800024010000240085402581C5402586B
:105A000094540258D6F85CE04FF0080C0EF01F02D8
:105A10000CFA02F10F4200F0DE81D3F800C01CF056
:105A2000040F0AD0D3F800C02CF0040CC3F800C057
:105A3000A160716D41F00101716527FA02F1C9079A
:105A40005BD500284FD1A249DFF88CC2634518BF4F
:105A50008B420CF1180C0CBF01210021634508BFDB
:105A600041F001010CF1180C634508BF41F0010140
:105A70000CF1180C634508BF41F001010CF1180C42
:105A8000634508BF41F001010CF5567C634508BF32
:105A900041F001010CF1180C634508BF41F0010110
:105AA0000CF1180C634508BF41F001010CF1180C12
:105AB000634508BF41F001010CF1180C634508BFB4
:105AC00041F001010CF1180C634508BF41F00101E0
:105AD0000CF1180C634508BF41F0010119B97D496B
