:020000040800F2
:100000000000022015040008110400089D2F0008BC
:100010001104000811040008110400080000000089
:1000200000000000000000000000000011040008B3
:10003000110400080000000011040008212F00082E
:10004000110400081104000811040008110400083C
:10005000110400081104000811040008110400082C
:10006000110400081104000811040008212B0008E5
:100070002D2B000811040008392B0008452B00081F
:1000800061D80008112000081104000811040008BC
:1000900011040008110400081104000811040008EC
:1000A00011040008110400081104000811040008DC
:1000B0001DCC000829CC000835CC000841200008E0
:1000C000110400084D20000811040008C5C40008F0
:1000D000D1C4000895D60008C5D60008F9D6000896
:1000E00011040008110400080000000011040008B9
:1000F000110400081104000811040008110400088C
:10010000110400081104000841CC0008DDC40008F7
:100110002DD7000861D70008110400081104000859
:10012000110400081104000801C5000835C50008C5
:1001300095D80008110400081104000811040008F3
:1001400000000000000000000000000000000000AF
:1001500011040008110400081104000895D70008D4
:100160005920000811040008312F0008552F0008FD
:1001700011040008792F0008110400081104000878
:100180001104000811040008C9D70008F9D70008B5
:10019000E9C40008F5C400081104000811040008AF
:1001A00011040008110400081104000811040008DB
:1001B0009127000811040008110400081104000828
:1001C0001104000811040008751B0008811B0008B9
:1001D000110400088D1B0008110400081104000818
:1001E000110400081104000811040008110400089B
:1001F000110400081104000811040008110400088B
:10020000110400081104000811040008110400087A
:10021000110400081104000811040008110400086A
:100220001104000811040008110400080000000077
:100230001104000811040008000000001104000867
:10024000110400081104000811040008110400083A
:10025000110400081104000811040008110400082A
:10026000110400081104000811040008110400081A
:1002700011040008110400082DD800080000000037
:100280001104000811040008110400080000000017
:08029000000000001104000849
:1002A00001F0FF01102A2BDB10F0070F08D010F827
:1002B000013B013A8B422DD010F0070F42B3F6D12B
:1002C000F0B441EA012141EA014122F007047FF044
:1002D00000070023F0E80256083C85EA010586EA9B
:1002E000010685FA47F5A3FA87F586FA47F6A5FAD7
:1002F00087F68EB9EED1F0BC01F0FF0102F00702E3
:1003000032B110F8013B013A83EA010313B1F8D18D
:100310000020704701387047002D06BF354603386E
:10032000073815F0010F07D1013015F4807F02BFA7
:10033000013015F4C03F0130F0BC0138704700BFF8
:10034000034613F8012B002AFBD1181A0138704715
:1003500053B94AB9002908BF00281CBF4FF0FF312C
:100360004FF0FF3000F00CB8ADF1080C6DE904CE91
:1003700012F0A4F9DDF804E0DDE9022304B07047CF
:10038000704700BF0348044B834202D0034B03B1C4
:100390001847704770070024700700240000000011
:1003A0000548064B1B1AD90F01EBA301491002D0D7
:1003B000034B03B1184770477007002470070024EF
:1003C0000000000010B5064C237843B9FFF7DAFFB0
:1003D000044B13B10448AFF300800123237010BD18
:1003E00070070024000000001830010808B5054B14
:1003F0001BB105490548AFF30080BDE80840FFF791
:10040000CFBF00BF000000007407002418300108AF
:10041000FEE700BF0B480C4A904203D0121A0B496A
:1004200010F054F90A480B4A904203D0121A0021E6
:1004300010F0FAF802F0D2FF10F012F900F024F8F0
:10044000FEE700BF00000024700700244C300108C4
:1004500070070024BC680024704700BF9AB103688D
:10046000406803EB820210B40C68496853F804CB6F
:1004700044F804CB934250F804CB41F804CBF5D1B7
:100480005DF8044B7047704708B500210A4800F03A
:10049000CDF80421084800F045F80321064800F093
:1004A00025F80649044800F01DF8012001F09CFAE7
:1004B000034801F035FAFEE78C0700245D040008CC
:1004C0004C2A010804480023044A0549036043619B
:1004D00003620FF065BA00BF8C07002400000024FF
:1004E00059040008143001F0E7B900BF38B500F135
:1004F000140504462DED028B284601F09BF9284691
:1005000001F094F92846B0EE408A01F07DF9D0ED73
:10051000007AF8EE677A88EE277ABDEC028B84EDDC
:100520000E7A38BD38B500F1140504462DED028B66
:10053000284601F06DF9284601F078F92846B0EE1A
:10054000408A01F061F9D0ED007AF8EE677A88EE22
:10055000277ABDEC028B84ED0E7A38BDF0B503230B
:1005600099B001250027064609A80E97CDE9123556
:100570002A4B0F9340F20453ADF84030284BCDE99D
:100580001475099301F008FB09A801F0E3FB0028AA
:1005900036D1244B04AF04460790CDF842301023E7
:1005A000394600908DF820301F4B04950593069531
:1005B000CDE91650684601F055FD0823009A01A9BF
:1005C00009A8ADF804508DF80640099402950393EC
:1005D00000F0D2F800230EA938463024049302F02C
:1005E0002BFB03224FF07E5309A906F114000B9355
:1005F0000C93CDE90942049A01F0CEF819B0F0BD90
:1006000040F60132074B169704AFADF82420099845
:10061000CDF84230179500F071F8DBE704020404CE
:1006200003030001040604030704010B70B5314BFA
:100630000446314D40F2011201262DED028B45603A
:1006400082B0A36003F58133ADF8042040F202725A
:1006500003F5807300202682E36040F6066384F889
:10066000276084F82B60A4F82520A4F82930009195
:100670008DF8060002F068FE68BB694604F13000A0
:1006800002F0C2FD211D204601F00EFF04F12500FD
:1006900001F082FA04F1290001F07EFA04F112005F
:1006A00000F08EF904F114052046FFF757FF2846A5
:1006B00001F0BCF82846B0EE408A01F0A5F8D0ED74
:1006C000007AF8EE677A88EE277A84ED0E7A02B027
:1006D000BDEC028B70BD0546694604F130008DF813
:1006E000066002F091FD072DDCD0211D204601F0AF
:1006F000DBFED7E7050705060508050910B584B038
:100700000346012403A8ADF80C30ADF80E4001F00B
:1007100043FA214603A801F02BFB204602F0AEFC71
:10072000002103A801F024FB204602F0A7FC21468B
:1007300003A801F01DFB04B010BD00BF10B5C2F34B
:10074000002384B00C46017C8DF80D2043EA44025E
:10075000FA2402238DF80C2003AA009401F016FD60
:1007600018B10124204604B010BD04460A2002F04E
:1007700085FC204604B010BD034670B543F8042B39
:10078000044684B0FA2507C983E80700A1791E232F
:10079000009503AA1A31ADF80C3020460223C9B2E5
:1007A000217401F0F3FC10B1012004B070BD0A20E7
:1007B00002F064FC4FF4B85200950223ADF80C200F
:1007C000204603AA217C01F0E1FC0028ECD10A209C
:1007D00002F054FC41F2027200950223ADF80C20A5
:1007E000204603AA217C01F0D1FC0028DCD10A209C
:1007F00002F044FC042200950223ADF80C202046B0
:1008000003AA217C01F0C2FC0028CDD10A2002F00D
:1008100035FC062200950223ADF80C20204603AAE1
:10082000217C01F0B3FC0028BED10A2002F026FC96
:1008300041F2082200950223ADF80C20204603AABD
:10084000217C01F0A3FC0028AED10A20064602F06C
:1008500015FC0095022303AA217C2046ADF80C600C
:1008600001F094FC00289FD1304602F007FC00956F
:1008700022790C232046002A8DF80C3003AA4FF071
:10088000020314BF622142218DF80D10217C01F07A
:100890007DFC002888D1304602F0F0FB2279D4E9B3
:1008A000023182F001020B4343EA82136279DBB228
:1008B0000AB143F020030E22FA258DF80D302046B0
:1008C000009502238DF80C2003AA217C01F05EFC28
:1008D00000287FF469AF0A2002F0D0FB10220095B7
:1008E0000223ADF80C20204603AA217C01F04EFC27
:1008F00000287FF459AF0A2002F0C0FB12210095B6
:100900000223ADF80C1003AA217C204601F03EFC26
:1009100000287FF449AF0A2002F0B0FB0122092130
:100920002046FFF70BFF003818BF01203DE700BF4E
:10093000F0B5214D87B000240126102702A94FF4FD
:10094000805228460194CDE90267CDE9046409F09C
:10095000ADFA642003F034FB022302A94FF4805265
:10096000284602930594CDE9037609F09FFA042303
:1009700002A94FF4805228460397CDE9043403239B
:10098000029309F093FA40F23223042202A9284686
:10099000019310230496CDE90223019B4FF480526A
:1009A000059309F083FA40F60601284609F09EFAFD
:1009B000204607B0F0BD00BFD407002400000000AF
:1009C00070B51F4B88B008221E4E00214FF4006402
:1009D0001A614FF0020C03920A225E6020260692F2
:1009E0004022054699600320196210215C620124AF
:1009F000C3E905624FF4C072DC60DA6107229FED43
:100A00000E7BCDE900C20422CDE904016946181D20
:100A1000029283ED0A7B09F01FFA38B92846FFF7E6
:100A200087FF003818BF012008B070BD204608B00D
:100A300070BD00BFAFF30080001000000000000098
:100A4000D0070024404100525E4A0023F0B51468EC
:100A50008FB00A93002C40F0B2805B4B012103263B
:100A60000C2511600227D3F8D420584842F4805254
:100A7000C3F8D420D3F8D42002F480520092009A14
:100A8000D3F8E02042F01002C3F8E020D3F8E020D1
:100A900002F010020192019AD3F8E02042F04002E5
:100AA000C3F8E020D3F8E02002F040020292029A5C
:100AB000D3F8E02042F00802C3F8E020D3F8E020A9
:100AC00002F008020392039AD3F8E02042F4807205
:100AD000C3F8E020D3F8E02002F480720492049A74
:100AE000D3F8E02042F08002C3F8E020D3F8E02001
:100AF00002F080020592059AD3F8E02042F020022D
:100B0000C3F8E020D3F8E02002F020020692069A13
:100B1000D3F8E02042F00402C3F8E0204FF68372DD
:100B2000D3F8E0300B9603F004030C9507930223EF
:100B3000079908A9CDE9082304F0D4FA48F237133D
:100B400008A9234808930C950997CDE90A4604F0B3
:100B5000C9FA4CF2037308A91E480893CDE9097439
:100B6000CDE90B6504F0BEFA40F2FF6308A91A480C
:100B70000893CDE90974CDE90B6504F0B3FA4FF69B
:100B80000C7308A915480893CDE90974CDE90B65E4
:100B900004F0A8FA4FF63F0308A911480893CDE9DD
:100BA0000974CDE90B6504F09DFA202308A90B48D0
:100BB00009970C950893CDE90A4604F093FA0FB013
:100BC000F0BD00BFC80700240044025800100258BE
:100BD00000180258000C025800200258001C02584D
:100BE000001402582DE9F04FDFF8F08389B0054674
:100BF000144608F1180000AF0E4602F01FF9D8F8AD
:100C00001820436962B3D8F81C20D8F804A0002A41
:100C10000BBF4FF008094FF010094FF0020B4FF0D7
:100C2000040BBAF1000F28D0A200E946012B02F113
:100C3000070222F00702ADEB020D6846ADEB020D94
:100C4000EB4600F03081022B69D0002B00F0C98008
:100C500022465946D047CD462437BD46BDE8F08FE1
:100C6000D8F81C20002AF7D0D8F804A04FF00809C3
:100C70004FF0020BBAF1000FD6D1FB61D8F800306B
:100C8000BB61002BE8D0CD4802F044F9BBF1020F64
:100C9000FB693861C7F814D000F074816A46484691
:100CA000C4F35D01A2EBC4029546E946A9EBC40C6E
:100CB000C7F81C90E54602EB810CEA466246ADEBB4
:100CC000000DC7F80CC00AEB810EEC46ADEB000D31
:100CD00002EB8100CCF8080000EB8100CCF80C009E
:100CE0000EEB8100CCE9009200EB8101E946C9E9F5
:100CF00000AEC9E90201012B00F05483022B00F081
:100D00005C82002B00F07281620849466046BB6934
:100D10009847D7F814D02437BD46BDE8F08F002C93
:100D200096D0D8ED0C6A01469FEDA57A00222B1DC6
:100D3000844655F82200083107EE900A53F8220045
:100D40000232F8EEE77A944267EE877A67EEA67A87
:100D500041ED027A07EE900AF8EEE77A67EE877ABD
:100D600067EEA67A41ED017AE3D8604659462246FD
:100D7000944DD047D8ED0D6A0021331D9FED997A2F
:100D80009FED996A904821E0F4EEC67AF1EE10FAF0
:100D9000C0F2CA840246DBED017A46F8212066EEF5
:100DA000A77AF4EEC77AF1EE10FA40F2E980F4EE99
:100DB000C67AF1EE10FAC0F2DD84024643F8212033
:100DC00002310BF1080B8C427FF645AFDBED007A68
:100DD00066EEA77AF4EEC77AF1EE10FAD4D82A4676
:100DE000D9E7002C3FF434AF1A46D8ED0C6A9FEDDA
:100DF0007C7A01462B1D35F922C0083107EE90CAD6
:100E000033F922C00232F8EEE77A944267EE877A2D
:100E100067EEA67A41ED027A07EE90CAF8EEE77A1D
:100E200067EE877A67EEA67A41ED017AE3D85946F4
:100E30002246D047D8ED0D6A0021331D9FED697A17
:100E40009FED696A614823E0F4EEC67AF1EE10FA8C
:100E5000C0F2858447F6FE72DBED017A46F8212068
:100E600066EEA77AF4EEC77AF1EE10FA40F28680C9
:100E7000F4EEC67AF1EE10FAC0F2668447F6FE721E
:100E800043F8212002310BF1080B8C427FF6E3AED0
:100E9000DBED007A66EEA77AF4EEC77AF1EE10FA8F
:100EA000D2D80246D8E7002C3FF4D2AED8ED0C6A77
:100EB00084469FED477A00212B1D55F821200CF127
:100EC000080C82F40002A2F5000207EE902A53F803
:100ED00021200231F8EEE77A82F400028C42A2F57A
:100EE000000267EE877A67EEA67A4CED027A07EE8B
:100EF000902AF8EEE77A67EE877A67EEA67A4CEDED
:100F0000017ADAD859462246D047324DD8ED0D6ADB
:100F10000021331D9FED337A9FED336A2E4820E088
:100F2000F4EEC67AF1EE10FAC0F206840246DBED6A
:100F3000017A46F8212066EEA77AF4EEC77AF1EE40
:100F400010FA19D9F4EEC67AF1EE10FAC0F2E58380
:100F5000024643F8212002310BF1080B8C427FF648
:100F60007AAEDBED007A66EEA77AF4EEC77AF1EEA0
:100F700010FAD5D82A46DAE72A46EAE702467FE79A
:100F80002A461BE7A0006108073020F00700ADEB00
:100F9000000D6A46ADEB000DEA46ADEB090D02EB24
:100FA0008100FA61EC46ADEB090D0AEB8101F860B6
:100FB000E946CCE90020C9E900A19CE62408002408
:100FC00000000030007E00800082FF7F0280FFFF73
:100FD000000000347E0080FF82FF7F0008080024AC
:100FE0000000003804FF7FBF04FF7F3F002C00F0AB
:100FF000C782BBF1020FD8F8241000F0FB823A69D7
:10100000DCF80C0001EB820EDCF808109200C7F847
:1010100000905FED0D5A0EF1040AD7F81C903A616A
:101020001A46FE612B1D0E46C7E901CB8446D7F850
:101030000CB035F92210D8ED0C7A06EE101A33F9FF
:10104000221006EE901A3EF92210B8EEC66A07EE9C
:10105000101AF8EEE66A3AF92210B8EEC77A26EED0
:10106000256A66EEA56A27EE257A26EE276A66EEE1
:10107000A76A27EE277A07EE901A51080232F8EE97
:10108000E77A09EB8100944280ED006A0BEB810066
:1010900067EEA57AC0ED006A06EB81000CEB8101DA
:1010A00080ED007A98ED0C7A67EE877AC1ED007AD0
:1010B000BFD8D7F800906208BB694946FE69D7E9F6
:1010C00001CB60469847D8F82C303A69D8ED0D6AC4
:1010D0001A441FED3C7A1FED3C6A331D904602F125
:1010E000040AA94D0022D9E900EC51E0F4EEC67AD9
:1010F000F1EE10FAC0F2CD8247F6FE7046F82200FB
:101100000CEB0100D0ED007A66EEA77AF4EEC77A18
:10111000F1EE10FA4BD9F4EEC67AF1EE10FAC0F205
:10112000C28247F6FE70BBF1020F43F822002BD0BB
:10113000D9F808000844D0ED007A66EEA77AF4EEFC
:10114000C77AF1EE10FA36D9F4EEC67AF1EE10FA5B
:10115000C0F2D98247F6FE7048F82200D9F80C0098
:101160000844D0ED007A66EEA77AF4EEC77AF1EE85
:1011700010FA1ED9F4EEC67AF1EE10FAC0F2B98276
:1011800047F6FE714AF82210023294427FF6C1AD52
:1011900051080EEB81008900D0ED007A66EEA77A47
:1011A000F4EEC77AF1EE10FAA0D82846A6E7284652
:1011B000B9E72946E6E72846CEE7002C00F0E081B3
:1011C000BBF1020FD8F8243000F0E1813A69DCF875
:1011D000081003EB820EDCF80C009300C7F80090B7
:1011E000DFED6A5A0EF1040AD7F81C9000223B6129
:1011F0002B1DFE610E46C7E901CB8446D7F80CB023
:1012000055F82210D8ED0C7A07EE101A53F8221078
:10121000B8EEC76A07EE101A5EF82210F8EEC76A39
:1012200007EE101A26EE256A5AF82210B8EEC77A91
:1012300066EEA56A26EE276A27EE257A66EEA76A8D
:1012400027EE277A07EE901A51080232F8EEE77A75
:1012500009EB8100944280ED006A0BEB810067EEA0
:10126000A57AC0ED006A06EB81000CEB810180EDF0
:10127000007A98ED0C7A67EE877AC1ED007ABFD8D4
:10128000D7F800906208BB694946FE69D7E901CBEF
:1012900060469847D8F82C303A69D8ED0D6A1A4460
:1012A0009FED3E7A9FED3E6A131D9246DFF8E4C043
:1012B0000022FB61331D364DD9E9008E4EE0F4EE7D
:1012C000C67AF1EE10FAC0F20682284646F82200ED
:1012D0000EEB0100D0ED007A66EEA77AF4EEC77A45
:1012E000F1EE10FA49D9F4EEC67AF1EE10FAC0F236
:1012F000F9812846BBF1020F43F822002AD0D9F821
:1013000008000844D0ED007A66EEA77AF4EEC77ABA
:10131000F1EE10FA35D9F4EEC67AF1EE10FAC0F219
:10132000D38128464AF82200D9F80C000844D0EDB1
:10133000007A66EEA77AF4EEC77AF1EE10FA1ED9BB
:10134000F4EEC67AF1EE10FAC0F2B7812946F869D8
:1013500040F82210023294427FF6DBAC510808EBD1
:1013600081008900D0ED007A66EEA77AF4EEC77AA4
:10137000F1EE10FAA3D86046A8E76046BAE76146E6
:10138000E5E76046CEE700BF0280FFFF00000030C7
:101390000082FF7F007E00800000003404FF7FBFDA
:1013A00004FF7F3F002C00F0EB803A690021D8F861
:1013B0002430C7F8089003EB820ED7F81C909300F6
:1013C000FE611FED0B6A0EF1040A3B612B1DFE68E6
:1013D00055F821204808D8ED0C6ABBF1020F82F4C1
:1013E0000002A2F5000207EE902A53F8212082F4B1
:1013F0000002B8EEE77AA2F5000227EE067A07EEC1
:10140000902A09EB8002F8EEE77A27EE267A67EE5B
:10141000867A82ED007A06EB80024FEA800067EE62
:10142000A67AC2ED007A27D05EF8212082F400026D
:10143000A2F5000207EE902A5AF8212082F4000259
:10144000B8EEE77AA2F5000227EE067A07EE902AB8
:10145000DCF80820F8EEE77A024427EE267A67EEF9
:10146000867A82ED007A98ED0C7ADCF80C2067EE33
:10147000877A0244C2ED007A02318C42A8D8D7F8AC
:10148000089060466208BB694946FE699847D8F8EB
:101490002C303A69D8ED0D6A1A441FED407A1FEDE1
:1014A000406A131D9246DFF8ECC20022FB61331D37
:1014B000B44DD9E9008E4EE0F4EEC67AF1EE10FAA2
:1014C000C0F2CB80284646F822000EEB0100D0ED9A
:1014D000007A66EEA77AF4EEC77AF1EE10FA49D9EF
:1014E000F4EEC67AF1EE10FAC0F2C5802846BBF1E0
:1014F000020F43F822002AD0D9F808000844D0EDA2
:10150000007A66EEA77AF4EEC77AF1EE10FA35D9D2
:10151000F4EEC67AF1EE10FAC0F2B48028464AF82A
:101520002200D9F80C000844D0ED007A66EEA77AC4
:10153000F4EEC77AF1EE10FA1ED9F4EEC67AF1EEA7
:1015400010FAC0F291802946F86940F82210023260
:1015500094427FF6DEAB510808EB81008900D0EDA4
:10156000007A66EEA77AF4EEC77AF1EE10FAA3D805
:101570006046A8E76046BAE76146E5E76046CEE721
:10158000224649466046BB699847FFF7C2BB98EDC3
:101590000C6A0021DFED7C6A2B1DD7F81CE0D7F820
:1015A0000CA055F8212007EE902A53F82120B8EE20
:1015B000E77A07EE902A4A080231F8EEE77A27EE3A
:1015C000267A0EEB82008C420AEB820267EEA67A44
:1015D00027EE067A67EE867A80ED007AC2ED007A11
:1015E000DFD83B696046620849469B003B61BB69A6
:1015F00098474FE6194698ED0C6ADFED646A2B1D9B
:10160000D7F81CE0D7F80CA035F9212007EE102AF6
:1016100033F9212007EE902AB8EEC77A4A08023142
:10162000F8EEE77A27EE267A0EEB82008C420AEB80
:10163000820267EEA67A27EE067A67EE867A80ED5A
:10164000007AC2ED007ADFD83B69604662084946FD
:101650009B003B61BB69984735E5F0EE675AFEEEAB
:10166000E45A15EE900A2EE7F0EE675AFEEEE45AC1
:1016700015EE901A68E7F0EE675AFEEEE45A15EEA2
:10168000900A34E7F0EE675AFEEEE45A15EE900A3F
:1016900045E7DFED3F5A67EEA57AFDEEE77A17EEF4
:1016A000900A00B22AE5DFED3A5A67EEA57AFDEE20
:1016B000E77A17EE900A00B235E5F0EE675AFEEED3
:1016C000E05A15EE901A42E6F0EE675AFEEEE05A46
:1016D00015EE900A26E6F0EE675AFEEEE05A15EE99
:1016E000900AF3E5F0EE675AFEEEE05A15EE900A26
:1016F00000E6DFED275A67EEA57AFDEEE77A17EEF2
:10170000901A09B23EE5DFED225A67EEA57AFDEEAA
:10171000E77A17EE900A00B21EE5F0EE675AFEEE89
:10172000E45A15EE902A14E4F0EE675AFEEEE05A01
:1017300015EE902AFFF72FBBF0EE675AFEEEE45A43
:1017400015EE902AFFF7F3BBDFED115A67EEA57A8D
:10175000FDEEE77A17EE902A12B2FFF791BBDFEDAC
:101760000C5A67EEA57AFDEEE77A17EE902A12B2D0
:10177000FFF772BBF0EE675AFEEEE05A15EE902AC4
:10178000FFF71CBB82FF7F00000000300000003824
:1017900000FEFF467E0080FF30B5184C154685B030
:1017A000046004F1080EEC460FC98EE80F00D4ED7A
:1017B000047AF5EEC07A8CE80F00F1EE10FA1ADD2B
:1017C000B7EE006A94ED057A27EE277AC6EE276A0F
:1017D00084ED0D7AC4ED0C6A6DB1204640F8185FB7
:1017E00001F02CFB064903690020064A2162A2622F
:1017F000E36005B030BD012005B030BD080800240D
:10180000002000300000003000680830704700BF42
:10181000B1F5807F03680A4628BF4FF48072B1F5A6
:10182000807F9A6094BF00200120704700681830C4
:1018300001F05EBB70B504688AB0A369E160CBB10A
:1018400004F11805284601F0F9FA8446EE46E668E8
:10185000BCE80F00AEE80F00BCE80F00AEE80F00D8
:101860009CE803008EE8030069462846049601F0D0
:10187000E3F9F0B9E369CBB104F11C05284601F0A6
:10188000DDFA8446EE46E468BCE80F00AEE80F00DF
:10189000BCE80F00AEE80F009CE803008EE80300F0
:1018A00069462846049401F0C7F910B900200AB02F
:1018B00070BD01200AB070BD30B5046883B00D461C
:1018C000E3694BB1A3680020E26A616A9B00009063
:1018D00004F11C0001F0B4FAA3680748A26A9B0057
:1018E000216A009004F1180001F0AAFA0020C4E96E
:1018F000005003B030BD00BFE50B0008064B3020A0
:1019000003214FF07E52C3E90201002000211A6139
:101910005A61C3E90601704708080024704700BFF8
:101920000FB4F0B583B02C4C2C4E08AB206853F8A4
:10193000042BC0F18001304401930EF04DFE23686A
:10194000C01827D0321800E020B312F8013D01463C
:1019500001380D2B18BF0A2BF6D08D1C7F2D33D9E3
:10196000802342F224421D46A6F87E2023601C4EAE
:101970003368012B18D9194F1A4E2A46394630467A
:1019800000F0EEF80028F8D1206003B0BDE8F04088
:1019900004B070470A230D22022532707370104E76
:1019A00025603368012BE6D82A460C490D4800F023
:1019B000D7F80028E9D1336820600133336003B0E1
:1019C000BDE8F04004B070470D23256073543144E6
:1019D0000A234B70CBE700BF4C08002450080024BA
:1019E000480800244408002410B504460021084893
:1019F00000F030F8074B640007481C60FFF790FFC9
:101A00000648FFF78DFF0A20BDE8104001F036BB05
:101A10004408002448080024582A0108682A0108BC
:101A200038B5074D074C2A46074821460DF0B8FF48
:101A30002A4621460548BDE838400DF0B1BF00BF39
:101A4000000000241D190008440800244008002458
:101A5000704700BF012910B506D0022915D051B139
:101A6000BDE8104005F070BA0A463448344909F020
:101A7000A7FCE8B1FEE7334B0A46334C3349344800
:101A80001C6009F09DFC68B1FEE701222C492B483F
:101A900009F096FC00B1FEE72E49284809F0B2FC97
:101AA000C0B1FEE72B492A4809F0ACFC60B1FEE763
:101AB0002849224809F0A6FC00B1FEE726491F4844
:101AC00009F030FC08B3FEE72449214809F02AFC5C
:101AD000A8B1FEE72049194809F024FC00B1FEE74F
:101AE000164809F0A5FC024640B9164B164C17499A
:101AF00017481C6009F064FC68B1FEE7FEE7144873
:101B000009F096FC0028ABD0FEE70C4809F090FCE9
:101B10000028A5D0FEE70F490D4809F073FC00B17D
:101B2000FEE70E490A4809F0FDFB00B1FEE7084850
:101B300009F07EFC002893D0FEE700BF740B002460
:101B4000B8000024D0080024511A0008E80000243E
:101B5000D8080024400200246400002474000024FB
:101B6000084691B208B501F029FD003818BF0120E0
:101B700008BD00BF014804F065BC00BFC03A0024A6
:101B8000014804F05FBC00BFC03A0024014804F0E3
:101B900059BC00BFC03A00248378022B30B50446FC
:101BA0008FB03AD0032B36D0A3F10102B2FA82F201
:101BB0005209E3780A92012B05D0A3F10203B3FA8C
:101BC00083F35B095B0000222046CDE90B3202F073
:101BD000D5F80546204602F0D9F823780990082B5D
:101BE00013D8DFE803F02F4255687B8EA1051C0057
:101BF000574BD3F8E02042F08002C3F8E020D3F83E
:101C0000E03003F080030793079B09A9284603F0FF
:101C100069FA0FB030BD1A46CBE71122C9E74C4B29
:101C200009A92846D3F8E02042F48072C3F8E020E6
:101C3000D3F8E03003F480730893089B03F052FA62
:101C40000FB030BD424B09A92846D3F8E02042F03E
:101C50000102C3F8E020D3F8E03003F00103009361
:101C6000009B03F03FFA0FB030BD394B09A928465D
:101C7000D3F8E02042F00202C3F8E020D3F8E030CD
:101C800003F002030193019B03F02CFA0FB030BD67
:101C90002F4B09A92846D3F8E02042F00402C3F8EC
:101CA000E020D3F8E03003F004030293029B03F03A
:101CB00019FA0FB030BD264B09A92846D3F8E02009
:101CC00042F00802C3F8E020D3F8E03003F0080344
:101CD0000393039B03F006FA0FB030BD1C4B09A918
:101CE0002846D3F8E02042F01002C3F8E020D3F8F1
:101CF000E03003F010030493049B03F0F3F90FB0FA
:101D000030BD134B09A92846D3F8E02042F0200249
:101D1000C3F8E020D3F8E03003F020030593059BDF
:101D200003F0E0F90FB030BD094B09A92846D3F8FC
:101D3000E02042F04002C3F8E020D3F8E03003F0A6
:101D400040030693069B03F0CDF90FB030BD00BFF2
:101D50000044025838B5054602F010F804462846FB
:101D600002F014F801462046BDE8384003F0C6BB37
:101D700070B506460D4602F001F80446304602F002
:101D800005F82A1E0146204618BF0122BDE8704012
:101D900003F0BABB70B5002386B0122202930393FE
:101DA00003680192032B01D804230493061D841DAC
:101DB000304601F0E3FF0546304601F0E7FF0346F9
:101DC00069462846009303F08DF9204601F0D6FFBE
:101DD000034620461C4601F0D9FF694603462046CB
:101DE000009303F07FF906B070BD00BF634A03683B
:101DF000934210B58CB028D0614A934258D0614AC2
:101E0000934200F09480604A934201D00CB010BD20
:101E10005E4C5F48D4F8E03043F00203C4F8E03091
:101E2000D4F8E03003F002030A930A9BFFF7B2FFF5
:101E3000D4F8F43043F08003C4F8F430D4F8F4302C
:101E400003F080030B930B9BE0E7504C5148D4F810
:101E5000E03043F00203C4F8E030D4F8E03003F09F
:101E600002030193019BFFF795FFD4F8E8300022AD
:101E70001F2043F400131146C4F8E830D4F8E830CA
:101E800003F400130293029BD4F8D83043F001030B
:101E9000C4F8D830D4F8D83003F001030393039B7F
:101EA00002F0B8F81F200CB0BDE8104002F0F0B806
:101EB000364C3948D4F8E03043F08003C4F8E030C1
:101EC000D4F8E03003F080030493049BD4F8E030AE
:101ED00043F00203C4F8E030D4F8E03003F002032A
:101EE0000593059BFFF756FFD4F8E8300022212028
:101EF00043F480031146C4F8E830D4F8E83003F422
:101F000080030693069BD4F8D83043F00103C4F84D
:101F1000D830D4F8D83003F001030793079B02F0C0
:101F200079F821200CB0BDE8104002F0B1B81B4890
:101F3000FFF730FF154B00224820D3F8E840114648
:101F400044F40004C3F8E840D3F8E84004F4000483
:101F50000894089CD3F8D84044F00104C3F8D84052
:101F6000D3F8D83003F001030993099B02F052F82B
:101F700048200CB0BDE8104002F08AB80054004080
:101F800000580040005C0040001C0058004402580B
:101F90009C100024140E0024EC0E0024C40F002416
:101FA000F0B5002287B0184B1021CDF802206F4603
:101FB000CDF806209C46CDF80A206E46CDF80E20BE
:101FC0000CF11805CDF812200CF1300EADF81620EA
:101FD000FF220E4B6C46ADF800101A700FCFACE824
:101FE0000F0097E803008CE803000FCE0FC596E8BA
:101FF000030085E803000FCCAEE80F0094E803006F
:102000008EE8030007B0F0BD04000024100E002489
:1020100010B5EFF3108472B6074B1A78120602D58A
:1020200004B962B610BD1B78D820044A5BB200FB2D
:10203000032002F001FDF3E7100E0024280E002417
:10204000014804F0EBB800BFA00E0024014804F0E2
:10205000E5B800BF780F0024014804F0DFB800BFE6
:10206000501000242DE9F0410F68D8253E4E84B071
:1020700007FB05F5032F06EB050303603EDCCA688A
:102080000C46012A3AD84BD020689C4661684FF034
:10209000D808A2680DF1100EE36808FB0768ACE8E9
:1020A0000F00324B227C8CF80020D8F808C00FCBF0
:1020B0000EE90F000EEB8703BCF1010F53F8103C43
:1020C000C8F88C3031D0BCF1020F42D0BCF1000F07
:1020D00035D08C35D823217C002203FB07630120F7
:1020E00035444900C3E926022846C3F89410C3E9E1
:1020F0002822C3E92A2203F087FE18B1012004B088
:10210000BDE8F0810146284604F094F80028F5D196
:102110000146284604F0B8F8003818BF0120EEE761
:102120000A7C103A672AAFD9E8E701F00BF9104BA7
:1021300098420CBF0F4B104BC8F89030C9E701F024
:1021400001F90B4B98420CBF0C4B0D4BC8F890306B
:10215000BFE701F0F7F8064B98420CBF094B0A4B5A
:10216000C8F89030B5E700BF140E0024182A010803
:10217000000E27072D0FB0303211D0205F43906042
:102180008A62E030200BA0101A0980102DE9F0417E
:10219000D0F8008082B00D4617461E4608F18C0428
:1021A000204604F043F82028FAD1D8F80C3073B94F
:1021B0006D002046089C33463A46A9B2009403F0CD
:1021C00079FE003818BF012002B0BDE8F081089BFD
:1021D00032463946204603F03FFFF2E7044B102217
:1021E0001A7483F8E82083F8C02183F89822704796
:1021F000140E002430B5002395B04FF480710622F0
:1022000004460B930692119312931393CDE90C138A
:10221000CDE90E3301F098F807282AD004F1100513
:1022200041F2883206A9284604F0C4FF28B10123F0
:10223000012084F85C3015B030BD0223102206A9BD
:10224000284602920022CDE90033012303934FF484
:102250008003CDE9042305224FF0807306926A467D
:102260000F9341F2883305F021F90028DFD115B032
:1022700030BD0323DCE700BF70B50023A4B04FF0EE
:1022800080724FF480750446ADF806301B93CDE99B
:102290001E320122CDE91C53CDE92023CDE92233A2
:1022A000002941D0F02300F1100516AEADF806303C
:1022B000C02341F2883231462846169304F07AFF53
:1022C00028B10123184684F85C3024B070BD41F277
:1022D00088320DF10601284604F0D8FF0346002895
:1022E000EFD105224FF480711093284608924FF0E9
:1022F00080720D93119201221393149315930293FC
:102300000592CDE90E139FED1A7B102141F288331F
:10231000CDE9032102AA08A98DED067B05F0C6F8D8
:102320000028CED124B070BD00F1100516AE612397
:1023300041F2883231462846169304F03BFF0028CC
:10234000BFD141F288320DF10601284605F022F88E
:102350000028B6D1BDF80630204623F0780343F0BC
:102360004003ADF80630FFF745FF0028A0D0A8E7EE
:1023700000000000000040002DE9F04F00234FF462
:10238000807601254FF0807780462DED028BABB033
:102390008DF807302193139319931A931B93229668
:1023A0001C952597CDE92333CDE92653CDE9283374
:1023B000CDE91463CDE9163306230E9300F0C4FF74
:1023C000072828D008F1100441F288320EA92046CF
:1023D00004F0F0FEF8B902234FF010094FF0050A9F
:1023E00008AA0EA920460B951797CDF82890CDF88E
:1023F00038A09FED2B8BCDE9083341F288338DED6A
:102400000C8B05F053F830B941F2883220461CA9F4
:1024100004F0D0FE40B10123184688F85C302BB0A0
:10242000BDEC028BBDE8F08F4FF0400B41F28832DB
:102430000DF1070120468DF807B004F027FF0028B2
:10244000E9D141F288331CA902AA2046CDF870A038
:102450002597CDE902BBCDE904958DED068B05F0FE
:1024600025F803460028D6D1139308AA19930EA97C
:102470001A9320461B931496CDF838A01797CDF8E1
:1024800028900B95CDE91533CDE9083541F2883315
:102490008DED0C8B05F00AF80028C0D0BBE700BF1B
:1024A00000000000000040002DE9F0435A4CA3B0AA
:1024B0000E46046000F048FF072800F0A680306850
:1024C00025467168B26807C5B389284620F8043BE1
:1024D000267B677B04F050FEF0B9504B012E4FF085
:1024E0000108E061236114BF4FF480134FF400032F
:1024F000C4F81480C4F8188093FAA3F3B3FA83F3F2
:102500004FF48079E062013B2063281DC4F82490D9
:10251000236204F0C5FD38B10123012684F85C3044
:10252000304623B0BDE8F08366230B90119041F252
:102530008832129006A913900693CDE90C90CDE94C
:102540000E00281D04F036FE0028E5D1992341F243
:10255000883206A9281D069304F02CFE0028DBD142
:1025600005231C9019906A4614934FF080731F90B6
:1025700014A91D93102320902190029341F28833D7
:10258000CDF80C809FED227BCDE91A90CDE90008B3
:10259000281D8DED047B04F089FF0028BCD1314655
:1025A0002046FFF769FE0028B6D12046FFF7E4FE7B
:1025B00006460028B0D1002FB2D1EB234FF000081F
:1025C000CDF868904FF0000914934FF4406306AAC9
:1025D00014A91B934FF40053281D189617934FF41A
:1025E00040431F961C93A02320961693062319930D
:1025F0004FF0805321934FF04073CDE906891D932E
:1026000004F0CCFF00288BD086E7032385E700BFCA
:10261000000000000000400078110024005000522B
:102620002DE9F04F8FB0414B0024026800AF9A4271
:102630007C63C7E90944C7E90B4403D03C37BD4676
:10264000BDE8F08F3A4B40F609213A48EA46D3F804
:10265000D42007F11C0607F1220B4FF0020942F4C7
:1026600080424FF00308C3F8D420D3F8D42002F4FA
:102670008042BA60BA68D3F8E02042F04002C3F862
:10268000E020D3F8E02002F04002FA60FA68D3F8C4
:10269000E02042F02002C3F8E020D3F8E02002F06E
:1026A00020023A613A69D3F8E02042F01002C3F800
:1026B000E020D3F8E02002F010027A617A69D3F8C2
:1026C000E02042F00202C3F8E020D3F8E030F861E5
:1026D00003F002033984BB61174B7B60BB697B68E5
:1026E00053F8040F7B6001F049FB7B6805461868CE
:1026F00001F04CFB16F8013B786207F124012846F3
:10270000C7F830807B63C7E90A9402F0EBFC5E45B2
:10271000E5D100225C20114601F07CFC5C2001F038
:10272000B7FC3C37D546BD46BDE8F08F005000529F
:10273000004402580A0A0909D4110024114B026806
:102740009A4200D07047104A70B5D2F8D4300F4C7E
:1027500023F4804304F11806C2F8D43054F8040F6F
:1027600001F00CFB0546206801F010FB01462846ED
:1027700002F0FAFDB442F1D15C20BDE8704001F0F6
:1027800095BC00BF0050005200440258D4110024F0
:10279000014804F093BF00BF88110024084B1A1DA4
:1027A000981D03F1080110B49C1C9A6603F10A02FB
:1027B000C3E91834C3E91B015DF8044B5A6770473D
:1027C000781100242DE9F043821D05468BB0031DCE
:1027D00005F10A010830CDE9052305F10C02AB69CA
:1027E000CDE907010992002B3ED0EB69B3FA83F8DB
:1027F0004FEA58180123022205AE0AAF4FF006092E
:1028000001920293039313E02B680BB3012B02D1C7
:1028100022B30A230493204601F0B8FA0346204667
:10282000009301F0ABFA694602F05CFCBE4212D0A4
:1028300056F8044B2B7922789342E5D16979637875
:102840009942E1D1B8F1000FF0D02B68002BDDD117
:10285000CDF81090DFE70BB0BDE8F0836378022B72
:1028600014BF0A230823D5E74FF00108C2E700BFD1
:10287000A24A0368934270B505468AB07FD02032E1
:1028800093427CD09E4A934204D02032934201D09E
:102890000AB070BD9B4C9C48D4F8E03043F0010373
:1028A000C4F8E030D4F8E03003F001030593059B51
:1028B000D4F8E03043F00803C4F8E030D4F8E03056
:1028C00003F008030693069BD4F8E03043F040037E
:1028D000C4F8E030D4F8E03003F040030793079BDE
:1028E000D4F8F03043F40003C4F8F030D4F8F030FA
:1028F00003F400030893089BFFF764FFD4F8D82083
:10290000824B42F001022968D3F85C02C4F8D82057
:10291000D4F8D82002F001020992794A099C914228
:1029200000F0AB80D3F88022013A18BF0122920157
:10293000002840F0D0807648582103F22C4403F55B
:102940004775C3F82C0400232046C4E901124FF454
:1029500080614FF48052636262614FF48042C4E947
:1029600003314FF48073A261E3614FF400332362BB
:1029700001F002FD002800F09780FFBEFEE7614CE9
:10298000624ED4F8E030304643F00103C4F8E03042
:10299000D4F8E03003F001030093009BD4F8E0305A
:1029A00043F01003C4F8E030D4F8E03003F0100333
:1029B0000193019BD4F8E03043F04003C4F8E030C9
:1029C000D4F8E03003F040030293029BD4F8F030D7
:1029D00043F48003C4F8F030D4F8F03003F48003FB
:1029E0000393039BFFF7EEFED4F8D830296843F039
:1029F0000103424A3068C4F8D8309142D4F8D83044
:102A000003F001030493049B27D0736A013B18BFB2
:102A100001239B01002856D13D4A06F5E874582150
:102A2000C036C6F8102100222046C4E901134FF435
:102A300080534FF48061626263614FF48073C4E934
:102A40000321E3614FF480424FF40033A26123621B
:102A500001F092FC08B3FFBEFEE7336A013B18BFEA
:102A600001239B0138BB02F5284206F5AC745721BF
:102A700028360C32C6F83021D5E7D3F87C22013A4B
:102A800018BF0122920178BB2248572103F56D74CB
:102A900003F52175C3F8B40355E7C6F88040C6F8BE
:102AA0008440A6630AB070BDC5F88040C5F8844074
:102AB000A5630AB070BD184A06F5AC7459212836D2
:102AC000C6F83021AFE7154A06F5E8745A21C0363A
:102AD000C6F81021A7E711485A2103F22C4403F548
:102AE0004775C3F82C042EE70B48592103F56D7484
:102AF00003F52175C3F8B40325E700BF045801406E
:102B0000045C0140004402584C140024F0110024DD
:102B100028000240100002405800024070000240AD
:102B2000014801F089BF00BF48130024014801F0AB
:102B300083BF00BFC0130024014801F07DBF00BF68
:102B4000A4150024014801F077BF00BF1C16002423
:102B50001A4A0368934210B40BD02032934208D033
:102B6000174A934216D02032934213D05DF8044B9B
:102B70007047144B0022D3F85442C3F85822D3E9CB
:102B80009201002CF2D0D3F8502223465DF8044B7A
:102B9000520818470B4B0022D3F8B044D3F8A404D2
:102BA000D3F8A814C3F8B424002CDFD0D3F8AC2495
:102BB00023465DF8044B5208184700BF04580140F3
:102BC000045C0140F0110024184A0368934210B4D9
:102BD0000BD02032934208D0154A934217D02032AE
:102BE000934214D05DF8044B7047124BD3E9942400
:102BF000D3E992015208C3F85822002CF2D02346A0
:102C000001EB820100EB82005DF8044B1847094B91
:102C1000D3F8AC24D3F8B0445208D3F8A404D3F8C2
:102C2000A814C3F8B424002CE9D1DBE70458014010
:102C3000045C0140F01100242DE9F04F0C684FF4C2
:102C40001777794E87B004FB07F7012C06EB0708CE
:102C5000C0F8008000F39F804FF0000907F5127361
:102C60000D468E4646F803903344C446C3F804909C
:102C7000C8F8509268A3D3E9002369A1D1E9000103
:102C8000CDE9022306AB03EB8403CDE9040153F83D
:102C900010BC53F808ACBEE80F00ACE80F00BEE86B
:102CA0000F00ACE80F009EE80300C8F828B0C8F891
:102CB000C0A08CE803002B69042B0DD8DFE803F0DB
:102CC0007F89930376004FF417734BF6803203FB32
:102CD00004639A64C3F8E020AA69002A56D02B6ADC
:102CE0000122002B14BF032102214FF4177303FBB1
:102CF0000463C3E90B12EA69002A50D1696A0039FA
:102D000018BF01214FF4177303FB0463C3E93112A9
:102D10006B69022B06D8454A12F80390444A52F8D0
:102D2000233001934FF417730022424907F1280022
:102D300004FB03F3304403F1380E03F1500C03F1AC
:102D4000D00503F1E80441F80E2033448E44CEF858
:102D500004205A645A6341F80C208C44CCF80420B7
:102D6000DA654A510D446A60C3F8DC20C3F8CC2010
:102D70000A510C4401996260C3F8F42002234A46C8
:102D800006F03EFE002838D0FFBEFEE7296A003973
:102D900018BF0121A9E7012007B0BDE8F08F6B6AD9
:102DA0000122002B14BF03210221ABE74FF417735C
:102DB000214A03FB04639A64C3F8E0208CE74FF4D4
:102DC00017734FF4FA5203FB04639A64C3F8E020CC
:102DD00082E74FF417734FF47A5203FB04639A644B
:102DE000C3F8E02078E74FF417734FF4FA4203FB7F
:102DF00004639A64C3F8E0206EE707F1C000022381
:102E00004A460199304406F0FBFD0028C4D0FFBEBD
:102E1000FEE700BFAFF3008004580140045C0140AE
:102E200024580140245C0140F0110024982A010834
:102E30008C2A0108F4110024007701000068704713
:102E4000F8B5046816460F46C4F85032C4E9921229
:102E5000069AC4F85422A269012A24D0626A9DB25B
:102E6000012A10D02A46314604F1C00006F066FE61
:102E7000236A2A46012B0FD0314604F1280006F0C0
:102E80005DFE0020F8BD2A4604F1C00006F0DEFE1B
:102E9000236A2A46012BEFD1394604F1280006F0B7
:102EA000D5FE0020F8BD226A9DB2012A10D02A4624
:102EB000314604F1280006F041FE636A2A46012BE0
:102EC0000FD0314604F1C00006F038FE0020F8BDF6
:102ED0002A4604F1280006F0B9FE636A2A46012B4F
:102EE000EFD1394604F1C00006F0B0FE0020F8BD75
:102EF00003681B69042B05D8044A02EB830393ED96
:102F0000000A70479FED020A704700BF782A010847
:102F100000803B470368D3F858027047704700BFF2
:102F200008B501F03BF8BDE8084001F039B900BF31
:102F3000064808B503680BB102F0EAFA04480368D2
:102F40001BB1BDE8084003F07DBA08BDC8400024AD
:102F5000B8360024064808B503680BB102F0D8FA69
:102F6000044803681BB1BDE8084003F06BBA08BD14
:102F7000C8400024B8360024064808B503680BB1E1
:102F800002F0C6FA044803681BB1BDE8084003F02C
:102F900059BA08BDC8400024B8360024364BDA6A56
:102FA000520062D59A6A9A6A9A6A9B6A180600D594
:102FB00000BE314B9B6A990600D500BE2E4B9B6A22
:102FC000DA0600D500BE2C4B9B6A1B0700D500BE5D
:102FD000294B9B6A980700D500BE274B9B6AD907EF
:102FE00000D500BE244B9B6A1A0400D500BE224BBC
:102FF0009B6A9B0400D500BE1F4B9B6AD80400D57A
:1030000000BE1D4B9B6A190500D500BE1A4B9B6A7A
:103010005A0500D500BE184B9B6A9B0500D500BE23
:10302000154B9B6AD80500D500BE134B9B6A9901CE
:1030300000D500BE104B9B6ADA0100D500BE0E4BD6
:103040009B6A1B0300D500BE0B4B9B6A580300D53F
:1030500000BE094B9B6A990300D500BE064B9B6AD4
:10306000DA0306D400BE00BEFEE7DB6A9B07FAD592
:10307000F8E700BEF6E700BF00ED00E000F0A0BFFB
:103080002DE9F041CEB004464C2200210AA80DF0F3
:10309000CBFA2022002102A80DF0C6FABC220021A2
:1030A0001EA80DF0C1FA022003F028FF2368012BAF
:1030B0004FF0000350D0504A02250193C820D16A36
:1030C0004E4B21F00101D162D26A02F0010201925D
:1030D0009A6942F440429A619B6903F44043019328
:1030E000019B464A93699904FCD545490224002274
:1030F00001268B6A4FF00408082723F003032343BB
:103100008B62052316900AA818934FF4803310960B
:103110001394149417941994CDF854801A97CDE908
:103120001B222122CDE90A2304F0D0FB00B1FEE7E7
:10313000402329463F224FF480650993049002A85A
:1031400005970895CDE906330323CDE9022304F062
:10315000EBFE0346B8B1FEE7284A04250093F020B1
:103160009169254B41F440419161926902F44042DA
:103170000092DA6A42F00102DA62DB6A03F00103CC
:103180000093009BADE74FF480324FF480513B93A6
:103190001EA846923C9322942F9433940624359192
:1031A0002197CDF8A8802C951F962396CDE925313F
:1031B000CDE93032CDE92D3300224FF440134FF4E6
:1031C0008071CDE93E2340F22712802343911021E4
:1031D000249334930C2329912093CDE92742202274
:1031E0002B92084A1E9205F0EBF800B1FEE703F0BF
:1031F000ABFE4EB0BDE8F081000400580048025814
:10320000004402580F130F032DE9F0410D46044608
:1032100084B0D1E9000184E8030000F08FFEAE79AC
:10322000002E35D06C460AF035FCFEF7B9FE09F0E9
:1032300009F90AF0B1F92B79002B52D16B799BB1C6
:10324000BFF34F8FBFF36F8F3B4B0022C3F8502269
:10325000BFF34F8FBFF36F8F5A6942F400325A6148
:10326000BFF34F8FBFF36F8F00234FF0FF32214624
:10327000324802928DF80C30CDE9003309F0E6FCBB
:103280002E4809F04BFD08F037FD04B0BDE8F08191
:1032900020466C46FFF7F4FE012700F02FFF4FF0A9
:1032A00040534FF4807820460193254BADF80070D1
:1032B000CDE9023800F040FF19224FF0404320468C
:1032C0008DF80F70ADF80D808DF801708DF80A60E3
:1032D0008DF80820019300F02FFF042000F01CFF60
:1032E000A1E715490023C1F88430BFF34F8FD1F80F
:1032F000803043F6E07EC3F3C906C3F34E334FEA92
:10330000431C0CEA0E00334640EA8372013BC1F8CD
:1033100060225A1CF8D1ACF1200C1CF1200FF0D126
:10332000BFF34F8F4B6943F480334B61BFF34F8F33
:10333000BFF36F8F82E700BF00ED00E0A816002406
:103340000E00010304F020BF1C4B9B6803F1784280
:10335000B2F5003F25D3B3F5803F20D303F160429F
:10336000B2F5003F1FD303F15C42B2F5002F1CD32E
:1033700003F17042B2F5902F19D303F14842B2F530
:10338000803F16D303F18042B2F1806F13D303F173
:10339000E043B3F5000F34BF072008207047012039
:1033A00070470020704702207047032070470420B8
:1033B0007047052070470620704700BF00ED00E011
:1033C00003480023034A044903600CF0E9BA00BF34
:1033D000A8160024000000241D2F000810B4204C63
:1033E0000022204B83B0D4F888101F4841F47001AC
:1033F000C4F8881019681D4C41F0010119601A6168
:10340000196808401A4918609A61DA611A629A626A
:10341000DA621A635A639A63DA631A645A64186840
:1034200020F4802018601A66D3F8DC2042F0604255
:10343000C3F8DC20D3F8DC300193019B23681940EA
:10344000B1F1005F03D20B4B0122C3F80821044BFA
:103450004FF000629A6003B05DF8044B704700BF04
:1034600000ED00E0004402587FEDF6EA0010005C39
:103470000000FFFF00800051704700BF0020704730
:1034800070B50446074E0D463046214607F05CFFF6
:10349000304607F07BFF044B204629461B689847BF
:1034A000002070BDD8080024B016002470B5044672
:1034B000074E0D463046214607F046FF304607F0DE
:1034C00065FF044B204629461B689847002070BDC5
:1034D000740B0024AC16002400220949094808B5E1
:1034E00007F028FF0849074807F02EFF074B1A6826
:1034F0000AB1002008BD064A00201A6008BD00BFBE
:10350000B4260024D8080024B42E0024B0160024C9
:103510007934000800220949094808B507F00AFF74
:103520000849074807F010FF074B1A680AB1002046
:1035300008BD064A00201A6008BD00BFB41600246A
:10354000740B0024B41E0024AC1600247934000847
:1035500020280AD0212806D1094B18689A889B791F
:1035600008608A808B7100207047054B0868B1F8AD
:1035700004C08A7918600020A3F804C09A717047CB
:103580005C00002420280AD0212806D1094B1868A5
:103590009A889B7908608A808B7100207047054B60
:1035A0000868B1F804C08A7918600020A3F804C044
:1035B0009A717047540000240020704710B5094CE0
:1035C000D4F89032D3F814320BB1012010BD0A4662
:1035D0000146204607F0AEFE2046BDE8104007F049
:1035E000BBBE00BFD80800244B4A036830B59342E5
:1035F0008BB04FF00004CDE90444CDE906440894B3
:1036000004D0464A934249D00BB030BD444D4FF4EC
:10361000C0524448D5F8E03043F00103C5F8E0302B
:10362000D5F8E03003F0010300930223009904A9C8
:10363000CDE904230A23089301F054FD4FF40072EE
:10364000002304A937480694CDE9042301F04AFD7C
:10365000D5F8D8302246214643F000636220C5F8F1
:10366000D830D5F8D83003F000630193019B00F007
:10367000D1FC622000F00CFD22462146632000F0C0
:10368000C9FC632000F004FD22462146652000F0BD
:10369000C1FC652000F0FCFC0BB030BD204D4FF4A8
:1036A000404204A9D5F8E03043F00203C5F8E03009
:1036B000D5F8E03003F002030293022302981A487F
:1036C000CDE904230C23089301F00CFDD5F8D83084
:1036D000224621464A2043F00073C5F8D830D5F879
:1036E000D83003F000730393039B00F093FC4A204F
:1036F00000F0CEFC224621464B2000F08BFC4B20F4
:1037000000F0C6FC224621464D2000F083FC4D20EF
:1037100000F0BEFC0BB030BD0000084000000440CB
:1037200000440258000002580004025800F571716C
:10373000D0F8040407F098BEC1EBC10300EB83038B
:10374000D0F80404D3F8082207F0BCBEC1EBC103D3
:1037500000EB8303D0F804049A6C07F0EDBE00BFC1
:10376000D0F8040407F088BFC16810B5044619B149
:10377000022900D0FEE70121D4F8040407F066FF17
:10378000D4F80404BDE8104007F038BF10B5044673
:10379000D0F8040407F05EFF2268D2F8003E43F040
:1037A0000103C2F8003E236A23B1034A136943F0C0
:1037B0000603136110BD00BF00ED00E0D0F8040463
:1037C00007F052BFD0F8040407F066BFD0F8040435
:1037D00007F060BFD0F8040407F060BFD0F804041D
:1037E00007F05EBF70B5067804461EB1012E2CD0DE
:1037F000002070BD2B4D02232B4AEB602A6009226A
:10380000AB6101236A600122C5F80404C0F8985234
:1038100028462E616E622E63C5E90766C5E90A2354
:1038200002F05EFD00B1FEE78021284603F046FB72
:1038300031464022284603F0BDFA80220121284665
:1038400003F0B8FA2678012ED2D1184D00230222B7
:1038500017492B6128466B63C5F80444C4F8985295
:103860002960EA60AA61C5E90733C5E90936C5E9F7
:103870000B3309236B6002F033FD044600B1FEE711
:103880004FF40071284603F019FB21468022284698
:1038900003F090FA4FF4BA723146284603F08AFAE0
:1038A000A6E700BFC03A002400000840B836002454
:1038B0000000044008B5D0F8980202F0A1FD18B14C
:1038C00002280CBF0120022008BD00BF9446D0F89A
:1038D00098021A4608B5634603F01EF918B102288B
:1038E0000CBF0120022008BD08B5D0F8980203F0F3
:1038F00051F918B102280CBF0120022008BD00BFF9
:1039000008B5D0F8980203F0D5F918B102280CBF19
:103910000120022008BD00BF08B5D0F8980203F0CE
:103920000DFA18B102280CBF0120022008BD00BF0B
:103930000A06D0F8983206D4C1EBC10103EB81032B
:1039400093F8FE01704701F07F01C1EBC10103EB69
:10395000810393F83E00704708B5D0F8980203F051
:10396000C5F818B102280CBF0120022008BD00BF15
:1039700008B5D0F8980203F075F918B102280CBF09
:103980000120022008BD00BF08B5D0F8980203F05E
:1039900037F918B102280CBF0120022008BD00BF72
:1039A000D0F8980203F054B9122301480B807047F5
:1039B000A4000024122301480B807047D400002487
:1039C000042301480B807047A000002410B5044C6C
:1039D0000A460448214608F0D7F8204610BD00BF2B
:1039E000C83E0024AC2A010810B5044C0A4604481D
:1039F000214608F0C9F8204610BD00BFC83E00248B
:103A0000BC2A010810B5044C0A460448214608F0B7
:103A1000BBF8204610BD00BFC83E0024D02A0108D4
:103A200010B5044C0A460448214608F0ADF820467B
:103A300010BD00BFC83E0024DC2A010810B5044CAC
:103A40000A460448214608F09FF8204610BD00BFF2
:103A5000C83E0024EC2A0108042301480B8070476B
:103A6000A000002410B5044C0A460448214608F082
:103A70008BF8204610BD00BFC83E0024AC2A0108C8
:103A80004D4A4FF01A0CD2F80038D2F80808A1F8C5
:103A900000C01B1801D149487047C3F303604FEAC7
:103AA000137CB3F1204FD2F80418444A2CBF0CF118
:103AB000370C0CF1300C092882F802C04FF0000CD2
:103AC0008CBF3730303082F803C04FF0000C1071DB
:103AD000C3F3035082F805C04FF0000C092882F8A8
:103AE00007C04FF0000C8CBF3730303082F809C06F
:103AF0004FF0000C9071C3F3034082F80BC04FF0FD
:103B0000000C092882F80DC04FF0000C8CBF373034
:103B1000303082F811C04FF0000C1072C3F3033044
:103B200082F813C04FF0000C092882F815C08CBF32
:103B3000373030309072C3F3032009288CBF373000
:103B400030301073C3F3031003F00F0309288CBF48
:103B500037303030092B90734FF0000094BF303372
:103B60003733B1F1204FD07313744FEA11732CBF68
:103B700003F1370003F13000C1F303639074092BA4
:103B80008CBF03F1370003F13000C1F3035310750C
:103B9000092B8CBF03F1370003F13000C1F303435D
:103BA00000219075092B0548D17594BF3033373308
:103BB00051761376704700BF00E0F11F84000024A7
:103BC0004D4A4FF01A0CD2F80038D2F80808A1F884
:103BD00000C01B1801D149487047C3F303604FEA86
:103BE000137CB3F1204FD2F80418444A2CBF0CF1D7
:103BF000370C0CF1300C092882F802C04FF0000C91
:103C00008CBF3730303082F803C04FF0000C107199
:103C1000C3F3035082F805C04FF0000C092882F866
:103C200007C04FF0000C8CBF3730303082F809C02D
:103C30004FF0000C9071C3F3034082F80BC04FF0BB
:103C4000000C092882F80DC04FF0000C8CBF3730F3
:103C5000303082F811C04FF0000C1072C3F3033003
:103C600082F813C04FF0000C092882F815C08CBFF1
:103C7000373030309072C3F3032009288CBF3730BF
:103C800030301073C3F3031003F00F0309288CBF07
:103C900037303030092B90734FF0000094BF303331
:103CA0003733B1F1204FD07313744FEA11732CBF27
:103CB00003F1370003F13000C1F303639074092B63
:103CC0008CBF03F1370003F13000C1F303531075CB
:103CD000092B8CBF03F1370003F13000C1F303431C
:103CE00000219075092B0548D17594BF30333733C7
:103CF00051761376704700BF00E0F11F8400002466
:103D000010B5044C0A460448214607F03DFF204602
:103D100010BD00BFC83E0024DC2A010810B5044CC9
:103D20000A460448214607F02FFF204610BD00BF79
:103D3000C83E0024D02A0108D0F8C00207F096BF80
:103D4000D0F8C00207F0AABFD0F8C00207F0B2BF97
:103D5000704700BFD0F8C00207F098BFD0F8C0028B
:103D600007F098BF08B5D0F8D00301F083FF18B171
:103D700002280CBF0120022008BD00BF024B0278C0
:103D800053F82200704700BF202B0108024B4278F5
:103D900033F81200704700BF002B01088CB00A28CE
:103DA00014D8DFE800F023313F4D5B697785930637
:103DB00015004D4BD3F8E02042F40072C3F8E02028
:103DC000D3F8E03003F400730A930A9B0CB07047F9
:103DD000454BD3F8E02042F48062C3F8E020D3F8EA
:103DE000E03003F480630B930B9BEFE73E4BD3F87B
:103DF000E02042F00102C3F8E020D3F8E03003F005
:103E000001030193019BE1E7374BD3F8E02042F037
:103E10000202C3F8E020D3F8E03003F0020302937B
:103E2000029BD3E7304BD3F8E02042F00402C3F802
:103E3000E020D3F8E03003F004030393039BC5E7CD
:103E4000294BD3F8E02042F00802C3F8E020D3F871
:103E5000E03003F008030493049BB7E7224BD3F848
:103E6000E02042F01002C3F8E020D3F8E03003F085
:103E700010030593059BA9E71B4BD3F8E02042F004
:103E80002002C3F8E020D3F8E03003F020030693CB
:103E9000069B9BE7144BD3F8E02042F04002C3F8A6
:103EA000E020D3F8E03003F040030793079B8DE751
:103EB0000D4BD3F8E02042F08002C3F8E020D3F8A5
:103EC000E03003F080030893089B7FE7064BD3F8AC
:103ED000E02042F48072C3F8E020D3F8E03003F42D
:103EE00080730993099B71E700440258704700BF33
:103EF0000F4B1B780BB90120704710B504464FF4E7
:103F00007A700C4AB0FBF3F31068B0FBF3F000F0EA
:103F1000DFF808B90F2C01D9012010BD002221467D
:103F20004FF0FF3000F076F8034B00201C6010BD0E
:103F300004010024500000240801002438B50320A7
:103F4000124D00F055F8124C03F04EFF114A124981
:103F50009369C3F30323CB5C03F01F0320FA03F33D
:103F60000E202B60926902F00F028A5C02F01F02A1
:103F7000D3402360FFF7BCFF10B10124204638BDB9
:103F80000446FFF7B3FF204638BD00BF50000024B1
:103F90004C000024004402589C2A0108034A044BA8
:103FA00011681B780B441360704700BF8C430024DA
:103FB00004010024014B1868704700BF8C430024A3
:103FC00038B50446FFF7F6FF0546631C02D0044BE4
:103FD0001B781C44FFF7EEFF401BA042FAD338BD0C
:103FE00004010024014B1868000C70470010005CAD
:103FF00006494FF6FF0C0002054BCA6800F4E0606A
:1040000002EA0C0210430343CB60704700ED00E06E
:104010000000FA051B4BDB68C3F3022300B5C3F1B4
:10402000070E03F1040CBEF1040F28BF4FF0040E7D
:10403000BCF1060F1AD9033B4FF0FF3C0CFA03FC0E
:1040400022EA0C024FF0FF3C00280CFA0EFC21EA99
:104050000C0101FA03F141EA02010ADB09010A4BF2
:10406000C9B2034483F800135DF804FB0022134631
:10407000E8E700F00F000901044BC9B203441976C8
:104080005DF804FB00ED00E000E100E0FCEC00E086
:10409000002807DB00F01F0101234009024A8B4082
:1040A00042F82030704700BF00E100E000280CDB40
:1040B0004309012200F01F0004492033824041F8E7
:1040C0002320BFF34F8FBFF36F8F704700E100E0F5
:1040D000431EB3F1807F01D3012070474FF0E022EF
:1040E000002005494FF0F00C5361072381F823C0ED
:1040F00090611361704700BF00ED00E0BFF35F8F78
:10410000044B00215A6A22F480325A62C3F8941098
:10411000704700BF00ED00E0064B40F00100C3F81F
:1041200094005A6A42F480325A62BFF34F8FBFF351
:104130006F8F704700ED00E0174A4378C2F898305F
:10414000017821B3436800B5C2F89C30C37A90F877
:104150000CC01B0690F80FE043EA0C7390F80AC0FD
:104160000B43817B43EACC4390F80DC043EA8C4378
:1041700090F809C043EA4143017A43EA0E4343EA17
:104180000C2343EA4103C2F8A0305DF804FBC2F8F7
:104190009C10C2F8A010704700ED00E0704700BF0F
:1041A00008B5FFF7FBFF08BD3649024603688B429E
:1041B00033D01831591AB1FA81F1490969BB324833
:1041C00083423ED0183083423ED01830834234D0F0
:1041D000183083423BD0183083423ED0183083429F
:1041E0002AD000F55670834235D028498B4231D011
:1041F00018318B4234D018318B4234D018318B4275
:1042000034D018318B4234D018318B4234D018312D
:104210008B4234D023F0FF0011E0DBB21C491D4873
:10422000103BA1FB031310B41B091B4CE15C5DF8B0
:10423000044BC2E91601704716211848D1659065F4
:10424000704710211348F9E716211248F6E70621B6
:104250001248F3E706211248F0E710210F48EDE776
:1042600010210F48EAE716210D48E7E700210D4825
:10427000E4E706210B48E1E710210A48DEE71621B2
:104280000848DBE7100002404000024028040240DA
:10429000ABAAAAAA00000240502B01080400024069
:1042A00000040240040402400368274A274930B44E
:1042B000274D284CAB4218BF93420CBF012200226D
:1042C0008B4208BF42F001022831A34208BF42F0EE
:1042D000010228348B4208BF42F001022831A34278
:1042E00008BF42F001028B4208BF42F0010212B93E
:1042F000194A934213D1DBB21849194A083B194CA9
:10430000A1FB0313012102EB1312C3F30413920068
:1043100001FA03F38366C0E9182430BC7047D9B2B0
:10432000114A124C10391A44A4FB0141A82A4FEA41
:10433000111100D808310E4A01F01F0401230A446C
:10434000A3400C4C9200E5E7085402583054025840
:104350001C5402584454025894540258CDCCCCCC2E
:104360000096001680580258F0FBFDBFABAAAAAA1F
:10437000008200108008024070B50446FFF71AFE64
:10438000002C00F0FB8023680546A74A934200F00A
:10439000988018329A1AB2FA82F25209002A40F032
:1043A0009080A2498B4200F0DE8018318B4200F0F1
:1043B000DA8018318B4200F0D68018318B4200F041
:1043C000D28018318B4200F0CE8018318B4200F041
:1043D000CA80974A934274D01832934271D01832EF
:1043E00093426ED0183293426BD01832934268D009
:1043F0001832934265D01832934262D018329342F9
:104400005FD08C4A8C488D49834218BF934200F19B
:1044100028000CBF012200228B4208BF42F001029B
:104420002831834208BF42F0010228308B4208BF86
:1044300042F001022831834208BF42F001028B4260
:1044400008BF42F001021AB97D4A934240F032811E
:10445000022200217B4D84F8341084F835201A683C
:104460001540A268402A00F02381A2F18002B2FA2E
:1044700082F252099003266AD4E90312D20842EA72
:10448000D102616942EAD102A16942EAD102E1693D
:1044900042EAD1026C4942EA161219442A431043F7
:1044A0006A4AA2FB0121186020460B099B00E365C4
:1044B000FFF77AFEE16D012201F01F018A404260A0
:1044C00036E00021022284F8341084F835201A687E
:1044D00022F001021A6005E0FFF76CFD431B052B7B
:1044E00047D823681A68D107F6D4D4E90225216990
:1044F0002A43A0691D680A4361690A43E1690243CE
:104500000A4353492940256A2A430A43616A042918
:1045100036D01A605A6922F00702114359612046C9
:10452000FFF742FEE26D3F2302F01F0293408360DB
:104530002046FFF7B9FEA368802B6CD06368A06E9D
:10454000D9B2013BD4E91852072B296050602DD90C
:104550000023E3662367636700230122636518462F
:1045600084F8352070BD022184F8342084F8351099
:10457000ADE720220323626584F83530012070BD49
:10458000D4E90B5129431143A26A1960596921F0FA
:104590000701114341F00401002DBFD000285DD177
:1045A000012A7BD032F00202B8D15FE02268481EB7
:1045B000204B214DAA4218BF9A4205F114050CBFA9
:1045C00001230023AA4208BF43F001031435AA4285
:1045D00008BF43F001031435AA4208BF43F00103AA
:1045E0001435AA4208BF43F001031435AA4208BF9C
:1045F00043F0010313B9124B9A4254D1154A164D98
:104600000A449200012300218340C4E91B2563670B
:1046100011606B60A0E70023A16ED4E9180263600B
:104620000360516094E700BF100002404000024068
:1046300010040240085402581C54025830540258C6
:10464000945402580F00FEFFF8ABFDA7CDCCCCCCA4
:104650003F8010FE3F96001640590258B0F5005FAB
:104660000DD0022A05D9032A7FF458AFEA017FF55D
:1046700055AF40220123626584F835307EE7032A76
:104680003FF64CAF01A050F822F000BF734600087F
:104690006D460008734600089D460008B5F1C07FCE
:1046A0007FF43CAFE5E7064A064D0A449200A9E7CD
:1046B0001020E0E640220323626584F835305DE790
:1046C0003F82001040090240002800F0D2802DE90E
:1046D000F04F90F8344083B0012C00F0C6800124E4
:1046E00080F8344090F83540012C09D000224FF476
:1046F000006380F834204365012003B0BDE8F08FEB
:1047000002248C4D8C4E80F8354000248B4F44653C
:104710000468B44218BFAC4206F118060CBF01256C
:104720000025B44208BF45F0010506F55676B442AF
:1047300008BF45F001051836B44208BF45F0010531
:104740001836B44208BF45F001051836B44208BF18
:1047500045F001051836B44208BF45F0010518368A
:10476000B44208BF45F00105A6F58666BC4218BFF5
:10477000B44206F589660CBF4FF0010E4FF0000EF3
:10478000B44208BF45F00105A6F58666B44208BFED
:104790004EF0010E06F58966B44214BFAC4645F0F2
:1047A000010CA6F59266664D4EEA0C07B44218BF9E
:1047B000AC422668019726F001060CBF4FF0010BB2
:1047C0004FF0000B2660C66ED0F8588001D0002F45
:1047D00051D0D0E919757D6046B1D0E91C576F60A2
:1047E000BBF1000F02D1019D002D4BD0C56D4FF0E4
:1047F0003F0905F01F0A09FA0AF9C8F80890D4F829
:10480000008028F48028C4F8008063608368402B0F
:1048100028D0A160E260BBF1000F02D1BEF1000F11
:1048200070D0236823F01E0343F016032360036C4B
:104830001BB1236843F008032360036E1A68D20398
:1048400003D51A6842F480721A601EB1336843F4CB
:10485000807333602368002043F00103236003B0BA
:10486000BDE8F08FA260E160D5E7022003B0BDE8AB
:10487000F08F01207047D0E919576F6016B1D0E969
:104880001C576F60DFF8BCE0DFF8BC904C4518BFE8
:10489000744509F128090CBF4FF0010E4FF0000ECE
:1048A0004C4508BF4EF0010E09F114094C4508BFF4
:1048B0004EF0010E09F114094C4508BF4EF0010EEF
:1048C00009F114094C4508BF4EF0010E09F1140915
:1048D0004C4508BF4EF0010EBEF1000F03D1DFF8CA
:1048E0006CE074450ED1C56D4FF0010E05F01F0947
:1048F0000EFA09FEC8F804E063608368402B16D006
:10490000A160E260BCF1000F8BD1236823F00E039D
:1049100043F00A032360036C002B8ED02268036EE1
:1049200042F0040222601A68D1038AD48DE7A260A3
:10493000E160E7E788000240A0000240400002403A
:10494000100002401C540258085402589454025853
:1049500000286DD038B590F83530022B5BD1036854
:10496000344A93425BD01832934258D01832934263
:1049700055D01832934252D0183293424FD0183249
:1049800093424CD01832934249D01832934246D0C9
:1049900002F55672934242D0183293423FD01832F9
:1049A00093423CD01832934239D01832934236D0D9
:1049B0001832934233D01832934230D01832934297
:1049C0002DD01A68056E22F00E02C16D846D1A603A
:1049D00001F01F011A6822F001021A6001232A68FF
:1049E0008B4022F480722A606360C36ED0E9192183
:1049F000516033B11A68D0E91C1422F480721A6035
:104A00004C6000210122036D80F8341080F83520BD
:104A100063B198470AE080234365012038BD042232
:104A200080F835201A6822F001021A60002038BD93
:104A300001207047100002402DE9F0410022464B52
:104A400082B0846D06461D6801920368434A44485B
:104A50002768934218BF834221680CBF01200020C1
:104A600000F086801832934200F07C821832934224
:104A700000F078821832934200F085821832934217
:104A800000F081821832934200F07D821832934206
:104A900000F0798202F55672934200F07482183267
:104AA000934200F070821832934200F06C82183208
:104AB000934200F068821832934200F06482183208
:104AC000934200F060821832934200F05C82183208
:104AD000934200F05882234A2348834218BF9342EE
:104AE00000F114000CBF01220022834208BF42F0F3
:104AF00001021430834208BF42F0010214308342A5
:104B000008BF42F001021430834208BF42F00102A4
:104B10001430834208BF42F0010212B9134A934293
:104B200016D1F06D04251A6800F01F0085400D4273
:104B300000F08382570740F180821004656040F1E5
:104B4000AF82D10300F1B282B36C002B40F0F4814C
:104B500002B0BDE8F08100BF5000002428000240F0
:104B600010000240085402581C5402589454025831
:104B7000D6F85CE04FF0080C0EF01F020CFA02F1C0
:104B80000F4200F0DE81D3F800C01CF0040F0AD001
:104B9000D3F800C02CF0040CC3F800C0A160716D04
:104BA00041F00101716527FA02F1C9075BD50028C0
:104BB0004FD1A249DFF88CC2634518BF8B420CF17C
:104BC000180C0CBF01210021634508BF41F0010111
:104BD0000CF1180C634508BF41F001010CF1180CF1
:104BE000634508BF41F001010CF1180C634508BF93
:104BF00041F001010CF5567C634508BF41F001010D
:104C00000CF1180C634508BF41F001010CF1180CC0
:104C1000634508BF41F001010CF1180C634508BF62
:104C200041F001010CF1180C634508BF41F001018E
:104C30000CF1180C634508BF41F001010CF1180C90
:104C4000634508BF41F0010119B97D498B4240F02D
:104C5000E3815969090606D501219140A160716D72
:104C600041F0020171650421914039425FD0DFF8C3
:104C7000CCC1634551D000284FD10CF1180CDFF89E
:104C8000D081434518BF634508F118080CBF4FF0A9
:104C9000010C4FF0000C434508BF4CF0010C08F12B
:104CA0001808434508BF4CF0010C08F118084345AB
:104CB00008BF4CF0010C08F55678434508BF4CF08E
:104CC000010C08F11808434508BF4CF0010C08F12D
:104CD0001808434508BF4CF0010C08F1180843457B
:104CE00008BF4CF0010C08F11808434508BF4CF010
:104CF000010C08F11808434508BF4CF0010C08F1FD
:104D00001808434508BF4CF0010CBCF1000F04D15A
:104D1000DFF82CC1634540F08581D3F800C01CF05A
:104D2000020F04D0A160716D41F004017165102182
:104D300001FA02F23A425BD040498B4242D000284D
:104D400040D130313F48834218BF8B4200F13000E0
:104D50000CBF01210021834208BF41F0010118303E
:104D6000834208BF41F001011830834208BF41F07F
:104D7000010100F55670834208BF41F0010118306F
:104D8000834208BF41F001011830834208BF41F05F
:104D900001011830834208BF41F0010118308342FD
:104DA00008BF41F001011830834208BF41F0010102
:104DB0001830834208BF41F0010119B920498B42E4
:104DC00040F037811968C1F3C00189B1A2601A6847
:104DD000500300F1E7801A68D20503D41A6822F064
:104DE00008021A60336C1BB130469847D6F85CE075
:104DF0000EF01F0120208840384273D03268124BD9
:104E0000124FBA4218BF9A4207F118070CBF01238C
:104E10000023BA4208BF43F001031837BA4208BF63
:104E200043F001031837BA4208BF43F001031837B3
:104E3000BA4208BF43F0010318370BE040000240BC
:104E4000B80402405800024010000240280002400E
:104E500070000240BA4208BF43F001031837BA425B
:104E600008BF43F0010307F55677BA4208BF43F085
:104E700001031837BA4208BF43F001031837BA429A
:104E800008BF43F001031837BA4208BF43F00103DB
:104E90001837BA4208BF43F001031837BA4208BFB7
:104EA00043F001031837BA4208BF43F001031BB9AE
:104EB000894B9A4240F0D1801368C3F300138BB141
:104EC000A06096F83530042B136874D013F4802F4B
:104ED000136800F08A801F0340F19580F36B0BB1DB
:104EE00030469847736D002B3FF432AE736DDC078C
:104EF0001ED53268042186F8351078491368A1FB65
:104F0000055123F00103890A136002E01368D807F2
:104F100004D5019B01338B420193F7D9002386F816
:104F200034301368DB074CBF0323012386F8353088
:104F3000F36C002B3FF40CAE304602B0BDE8F041FC
:104F4000184727FA02F1C9073FF583AE04219140C3
:104F50000F427FF4E2AE102101FA02F217427FF411
:104F600031AF45E7D6F85CE04FF0080C0EF01F02B9
:104F70000CFA02F10F427FF406AE27FA02F1C907DC
:104F80003FF567AE6FE6D6F85CE008210EF01F0231
:104F900091400F427FF4F7AD27FA02F1C9073FF5C0
:104FA00058AE60E61B6819037FF51CAFB36C002B8D
:104FB0007FF41AAF1CE723F016031360536923F044
:104FC00080035361336C1BB3136823F00803136031
:104FD0003F23002001228B40A360336D86F834000C
:104FE00086F83520002BA7D1B2E513F480737FF447
:104FF00075AF116821F010011160012286F834307C
:1050000086F835206AE7736C002B7FF469AF69E797
:10501000B36C002BD8D1DBE71968042191403942E9
:105020003FF485AE1968102101FA02F217423FF4ED
:10503000DFAE1968C1F38001C7E6022585400D4245
:105040000FD097070DD51104656034D5D7033ED432
:10505000736C002B7FF470AF7AE51368C3F34003E1
:105060002DE7082585400D423FF472AD15077FF509
:105070006FAD1A68002122F00E021A600123F26C53
:1050800003FA00F06060736586F8341086F83530F6
:10509000002A3FF45DAD304602B0BDE8F041104754
:1050A000920603D41A6822F004021A60336C002BB3
:1050B0007FF442AF4CE512F0200208D119680120BC
:1050C00021F00A01196086F8342086F83500F36B68
:1050D000002B7FF431AF3BE5B8040240B5814E1B95
:1050E000406D70472DE9F04F0D6883B0002D00F042
:1050F000D38000234FF001084FF0B04608FA03F2C6
:1051000012EA050C00F0C3804C6824F01007022F4F
:1051100040F0C5804FEAD30903F0070E0F694FF046
:105120000F0B00EB89094FEA8E0ED9F820A007FA81
:105130000EF70BFA0EFE2AEA0E0A4FF0030E47EAAC
:105140000A07C9F820704FEA4309D0F800A004F01C
:1051500003070EFA09FE07FA09F72AEA0E0A6FEAB0
:105160000E0E47EA0A070760876807EA0E0ACF684B
:1051700007FA09F747EA0A078760C4F30017D0F86F
:1051800004A09F402AEA02023A434260C7688A6844
:1051900007EA0E0702FA09F23A43C260E20076D546
:1051A000674F03F0030E4FF00F09D7F8F4204FEAD2
:1051B0008E0E42F0020209FA0EF9C7F8F420D7F871
:1051C000F42023F0030707F1B04702F0020207F5CD
:1051D00080670192019ABA6822EA090A594A904204
:1051E0002ED002F58062904279D0574A90427DD00D
:1051F000DFF8589148456BD0DFF85491484500F0EE
:105200008380DFF85091484500F08580DFF84891B1
:10521000484572D0DFF84491484500F08380DFF8BC
:105220004091484500F08580DFF8389148450CBF33
:105230004FF009094FF00A0909FA0EFE4AEA0E0A70
:10524000C7F808A014F4803FD6F880206FEA0C0756
:1052500014BF4CEA02023A4014F4003FC6F8802022
:10526000D6F884200CBF3A404CEA020214F4801FA6
:10527000C6F8842032680CBF3A404CEA0202A4020D
:105280003260726854BF3A404CEA020272600133E5
:1052900035FA03F27FF432AF03B0BDE8F08F4FEA86
:1052A00043094FF0030ED0F800B004F0030A0EFAE1
:1052B00009FE013F0AFA09FA2BEA0E0B012F6FEAE9
:1052C0000E0E4AEA0B0AC0F800A03FF65FAF4BE7AC
:1052D0004FF0030909FA0EFE4AEA0E0AB0E74FF052
:1052E000010909FA0EFE4AEA0E0AA9E74FF002097F
:1052F00009FA0EFE4AEA0E0AA2E74FF0060909FA79
:105300000EFE4AEA0E0A9BE74FF0040909FA0EFE68
:105310004AEA0E0A94E74FF0050909FA0EFE4AEA36
:105320000E0A8DE74FF0070909FA0EFE4AEA0E0A47
:1053300086E74FF0080909FA0EFE4AEA0E0A7FE7EF
:10534000004402580000025800080258000C02589D
:10535000001002580014025800180258001C02588D
:105360000020025800240258002900F0AC800023DD
:105370002DE9F04F012683B0DFF868A14FF00F0848
:105380004FF0030906FA03F212EA010C73D023F07E
:10539000030503F003045544E400AF6808FA04FE73
:1053A0000EEA070701974B4FB84227D007F58067F1
:1053B000B84267D0484FB84267D0484FB8426ED025
:1053C000474FB84270D0DFF820B1584562D0DFF8BF
:1053D0001CB1584572D0DFF818B1584574D0DFF8C9
:1053E00014B1584565D0DFF810B1584514BF4FF0DF
:1053F0000A0B4FF0090B0BFA04F400E00024019FA4
:10540000A74219D1AC6824EA0E04AC604FF0B04456
:10541000D4F8805025EA0C05C4F88050D4F88450A4
:1054200025EA0C05C4F88450256825EA0C0525609A
:10543000656825EA0C0565605D000468DF0809FA07
:1054400005F500EB87072C43046003F00704D7F849
:1054500020C0A40008FA04F42CEA04043C62846826
:1054600024EA05048460446824EA02024260C268B7
:1054700022EA0502C260013331FA03F282D103B09D
:10548000BDE8F08F06FA04F4B9E74FF0020B0BFA0F
:1054900004F4B4E74FF0050B0BFA04F4AFE74FF058
:1054A000030B0BFA04F4AAE74FF0040B0BFA04F415
:1054B000A5E74FF0080B0BFA04F4A0E74FF0060B3A
:1054C0000BFA04F49BE770474FF0070B0BFA04F458
:1054D00095E700BF0000025800080258000C02586F
:1054E0000010025800040058001402580018025816
:1054F000001C025800200258002402580369194277
:1055000014BF01200020704702B90904816170476F
:105510002DE9F04F056885B00446284605F05EFB8E
:10552000012802D005B0BDE8F08F206805F006FB29
:105530000028F7D0206805F001FB10F4001F206858
:1055400002D04FF40013436105F0F8FA10F4801F05
:10555000206802D04FF48013436105F0EFFA10F099
:10556000806F206802D04FF08063436105F0E6FA57
:1055700010F0020F20682FD105F0E0FA800000F152
:105580001481206805F0DAFAC10100F1D0802068AA
:1055900005F0D4FA020700F1BF80206805F0CEFACA
:1055A00010F0007F20681AD105F0C8FAC306B9D5FB
:1055B0002568AB6923F01003AB612E6AC6F3434143
:1055C000C6F30A17022902D1002F40F0DD81AB6932
:1055D00043F01003AB61A5E702234361CCE705F07C
:1055E0006BFBA26880462068002A00F09C8005F5CD
:1055F000A06500264FF004094BE05FFA86FA00F53B
:10560000A06B0BEB4A174FEA4A12BB6859075BD5F0
:10561000C7F80890FB6843F00203FB60BB6898057D
:1056200000F11A81B86810F0010000F0D080236901
:105630004BB10AEB8A01386904EBC101C0F31200D7
:105640008B6C1B1ACB644FEA8A034FF0010C0020CD
:1056500003EB0A0104EBC101886581F85DC0C7F85E
:1056600008C091F83F0010F0FD0F00F08081032882
:1056700000F03A829A4404EBCA0A9AF8503083F058
:1056800001038AF85030A26820680136203596421E
:1056900049D206F00F0328FA03F3DB07F5D52B6890
:1056A0001F04AAD4F1B200F5A06E0EEB41174FEA29
:1056B000411ABB6813F004030DD0C7F80890FB68CB
:1056C00043F00203FB60E0E7BB689B0640F1D28039
:1056D0002023BB60A2E7D7F808C01CF0200C00F024
:1056E000E78001EB810C4FF0200E04EBCC0CC7F8E7
:1056F00008E09CF83DE0BEF1010FC6D18CF83D30CA
:1057000002238CF85C30FB6843F00203FB6005F079
:10571000D7FAA2682068B8E72046FEF70DFB20689C
:10572000082343613AE74FF0007343613CE7266882
:10573000D6F840340293D6F840340393039B23F009
:105740002E030393029B9A0707D5029BDB0700F108
:105750007181039B43F002030393029B1F0718D53B
:10576000039B43F008030393029B580740F13C81DD
:10577000A169022900F0A881E368012B03D14EF64C
:105780006022C6F804242046FEF7E4FA2046FEF71D
:10579000D7FA2068029B990603D5039B43F02003A8
:1057A0000393039BC6F84034F2E6D5F84034204614
:1057B00023F02E03C5F84034FEF7C6FA0121206815
:1057C00005F058FA20684FF000534361DAE6BB68F1
:1057D000990740F1A680FB680AEB8A0C23F00203CC
:1057E00004EBCC0CFB604FEA8A039CF85D100129A6
:1057F00000F050815344A1F1030C04EBC303BCF14E
:10580000050F26D8DFE80CF023251F032503996D2B
:105810000131032996BF084604210221986583F8C7
:105820005C105BF8023023F0804343F000434BF8F8
:10583000023002230A4620465146BB60FEF788FA32
:10584000A268206821E7052283F85C20F1E70221A5
:10585000E5E793F85C10ECE7FB685146206843F0FD
:105860000203FB6005F02CFA4FF400732068BB6064
:10587000A2680AE7BB68190700F1E480BB685B0512
:105880007FF5CCAEFB685146019243F00203FB600A
:1058900005F016FA10210AEB8A03019AB960082173
:1058A00004EBC30383F85D104FF48063BB60B5E67F
:1058B000BB685B0600F1A780BB6813F4007340F07F
:1058C0000E81D7F808C01CF0010F40F01D81BB68A5
:1058D00013F0080340F06B81D7F808C01CF0100FDC
:1058E00000F0258101EB810204EBC20293650323E2
:1058F00082F85D3092F83D3043B9282303FB014321
:1059000093F83C2012B9012283F83D20FB6843F054
:105910000203FB6005F0D4F910232068BB60A26885
:10592000B3E6BB6813F0800340F0B780BA68D206D4
:1059300040F1AD800AEB8A0104EBC10191F83F20F0
:10594000032A00F0488112F0FD02E5D123698A653F
:10595000002BE1D128230322514603FB0A4383F89D
:105960005D20FB68206843F00203FB60D2E7FA6821
:105970005146206842F002020193FA6005F0A0F956
:105980001022019BBA6075E606F00F0606EB86084A
:1059900004EBC808D8F8441000293FF418AE284694
:1059A00005F5A0653A4605F02BF8D8F8443005EB2C
:1059B00046123B441169D8F84C20C8F844307301B2
:1059C0003A44C8F84C20AA4A0A405AB1EA5822F090
:1059D000804242F00042EA5098F8503083F00103D0
:1059E00088F850302568F2E52046FEF7B7F9D6F87A
:1059F0004034206823F02E03C6F84034836943F016
:105A000000538361C6E601EB8103042204EBC30368
:105A100083F85D200122C3F858C083F83D20FB685D
:105A200043F00203FB6005F04BF940232068BB60A4
:105A3000A2682AE6B369204623F00053B361FEF75B
:105A40007FF986E6FB680521019243F00203FB60C3
:105A50000AEB8A0304EBC30383F85D10102351465D
:105A6000BB600823BB6005F02BF9019AD6E528231B
:105A7000022203FB014383F85C20282302222046F4
:105A800003FB0143BA6093F85C20FEF761F9A2685A
:105A90002068FAE58CF85C10CBE6FA680AEB8A031A
:105AA000514604EBC30342F00202FA609A6D0132E0
:105AB0009A65062283F85D20206805F001F98023AD
:105AC0002068BB60A268E0E5029B206803F4C02365
:105AD000B3F5802F18BF012105F0CCF853E6FB6821
